{
  "_format": "hh-sol-artifact-1",
  "contractName": "SonicRegistryV2",
  "sourceName": "contracts/v2/SonicRegistryV2.sol",
  "abi": [
    {
      "inputs": [],
      "stateMutability": "nonpayable",
      "type": "constructor"
    },
    {
      "inputs": [],
      "name": "AccessControlBadConfirmation",
      "type": "error"
    },
    {
      "inputs": [
        {
          "internalType": "address",
          "name": "account",
          "type": "address"
        },
        {
          "internalType": "bytes32",
          "name": "neededRole",
          "type": "bytes32"
        }
      ],
      "name": "AccessControlUnauthorizedAccount",
      "type": "error"
    },
    {
      "inputs": [
        {
          "internalType": "address",
          "name": "target",
          "type": "address"
        }
      ],
      "name": "AddressEmptyCode",
      "type": "error"
    },
    {
      "inputs": [
        {
          "internalType": "address",
          "name": "implementation",
          "type": "address"
        }
      ],
      "name": "ERC1967InvalidImplementation",
      "type": "error"
    },
    {
      "inputs": [],
      "name": "ERC1967NonPayable",
      "type": "error"
    },
    {
      "inputs": [
        {
          "internalType": "uint256",
          "name": "numerator",
          "type": "uint256"
        },
        {
          "internalType": "uint256",
          "name": "denominator",
          "type": "uint256"
        }
      ],
      "name": "ERC2981InvalidDefaultRoyalty",
      "type": "error"
    },
    {
      "inputs": [
        {
          "internalType": "address",
          "name": "receiver",
          "type": "address"
        }
      ],
      "name": "ERC2981InvalidDefaultRoyaltyReceiver",
      "type": "error"
    },
    {
      "inputs": [
        {
          "internalType": "uint256",
          "name": "tokenId",
          "type": "uint256"
        },
        {
          "internalType": "uint256",
          "name": "numerator",
          "type": "uint256"
        },
        {
          "internalType": "uint256",
          "name": "denominator",
          "type": "uint256"
        }
      ],
      "name": "ERC2981InvalidTokenRoyalty",
      "type": "error"
    },
    {
      "inputs": [
        {
          "internalType": "uint256",
          "name": "tokenId",
          "type": "uint256"
        },
        {
          "internalType": "address",
          "name": "receiver",
          "type": "address"
        }
      ],
      "name": "ERC2981InvalidTokenRoyaltyReceiver",
      "type": "error"
    },
    {
      "inputs": [],
      "name": "ERC721EnumerableForbiddenBatchMint",
      "type": "error"
    },
    {
      "inputs": [
        {
          "internalType": "address",
          "name": "sender",
          "type": "address"
        },
        {
          "internalType": "uint256",
          "name": "tokenId",
          "type": "uint256"
        },
        {
          "internalType": "address",
          "name": "owner",
          "type": "address"
        }
      ],
      "name": "ERC721IncorrectOwner",
      "type": "error"
    },
    {
      "inputs": [
        {
          "internalType": "address",
          "name": "operator",
          "type": "address"
        },
        {
          "internalType": "uint256",
          "name": "tokenId",
          "type": "uint256"
        }
      ],
      "name": "ERC721InsufficientApproval",
      "type": "error"
    },
    {
      "inputs": [
        {
          "internalType": "address",
          "name": "approver",
          "type": "address"
        }
      ],
      "name": "ERC721InvalidApprover",
      "type": "error"
    },
    {
      "inputs": [
        {
          "internalType": "address",
          "name": "operator",
          "type": "address"
        }
      ],
      "name": "ERC721InvalidOperator",
      "type": "error"
    },
    {
      "inputs": [
        {
          "internalType": "address",
          "name": "owner",
          "type": "address"
        }
      ],
      "name": "ERC721InvalidOwner",
      "type": "error"
    },
    {
      "inputs": [
        {
          "internalType": "address",
          "name": "receiver",
          "type": "address"
        }
      ],
      "name": "ERC721InvalidReceiver",
      "type": "error"
    },
    {
      "inputs": [
        {
          "internalType": "address",
          "name": "sender",
          "type": "address"
        }
      ],
      "name": "ERC721InvalidSender",
      "type": "error"
    },
    {
      "inputs": [
        {
          "internalType": "uint256",
          "name": "tokenId",
          "type": "uint256"
        }
      ],
      "name": "ERC721NonexistentToken",
      "type": "error"
    },
    {
      "inputs": [
        {
          "internalType": "address",
          "name": "owner",
          "type": "address"
        },
        {
          "internalType": "uint256",
          "name": "index",
          "type": "uint256"
        }
      ],
      "name": "ERC721OutOfBoundsIndex",
      "type": "error"
    },
    {
      "inputs": [],
      "name": "FailedCall",
      "type": "error"
    },
    {
      "inputs": [],
      "name": "InvalidInitialization",
      "type": "error"
    },
    {
      "inputs": [],
      "name": "NotInitializing",
      "type": "error"
    },
    {
      "inputs": [],
      "name": "ReentrancyGuardReentrantCall",
      "type": "error"
    },
    {
      "inputs": [],
      "name": "UUPSUnauthorizedCallContext",
      "type": "error"
    },
    {
      "inputs": [
        {
          "internalType": "bytes32",
          "name": "slot",
          "type": "bytes32"
        }
      ],
      "name": "UUPSUnsupportedProxiableUUID",
      "type": "error"
    },
    {
      "anonymous": false,
      "inputs": [
        {
          "indexed": true,
          "internalType": "address",
          "name": "owner",
          "type": "address"
        },
        {
          "indexed": true,
          "internalType": "address",
          "name": "approved",
          "type": "address"
        },
        {
          "indexed": true,
          "internalType": "uint256",
          "name": "tokenId",
          "type": "uint256"
        }
      ],
      "name": "Approval",
      "type": "event"
    },
    {
      "anonymous": false,
      "inputs": [
        {
          "indexed": true,
          "internalType": "address",
          "name": "owner",
          "type": "address"
        },
        {
          "indexed": true,
          "internalType": "address",
          "name": "operator",
          "type": "address"
        },
        {
          "indexed": false,
          "internalType": "bool",
          "name": "approved",
          "type": "bool"
        }
      ],
      "name": "ApprovalForAll",
      "type": "event"
    },
    {
      "anonymous": false,
      "inputs": [
        {
          "indexed": false,
          "internalType": "uint256",
          "name": "_fromTokenId",
          "type": "uint256"
        },
        {
          "indexed": false,
          "internalType": "uint256",
          "name": "_toTokenId",
          "type": "uint256"
        }
      ],
      "name": "BatchMetadataUpdate",
      "type": "event"
    },
    {
      "anonymous": false,
      "inputs": [
        {
          "indexed": true,
          "internalType": "uint256",
          "name": "tokenId",
          "type": "uint256"
        },
        {
          "indexed": false,
          "internalType": "string",
          "name": "imageURI",
          "type": "string"
        }
      ],
      "name": "CustomImageSet",
      "type": "event"
    },
    {
      "anonymous": false,
      "inputs": [
        {
          "indexed": true,
          "internalType": "string",
          "name": "name",
          "type": "string"
        },
        {
          "indexed": false,
          "internalType": "uint256",
          "name": "oldTokenId",
          "type": "uint256"
        },
        {
          "indexed": true,
          "internalType": "uint256",
          "name": "newTokenId",
          "type": "uint256"
        },
        {
          "indexed": true,
          "internalType": "address",
          "name": "owner",
          "type": "address"
        }
      ],
      "name": "DomainReclaimed",
      "type": "event"
    },
    {
      "anonymous": false,
      "inputs": [
        {
          "indexed": true,
          "internalType": "string",
          "name": "name",
          "type": "string"
        },
        {
          "indexed": true,
          "internalType": "uint256",
          "name": "tokenId",
          "type": "uint256"
        },
        {
          "indexed": true,
          "internalType": "address",
          "name": "owner",
          "type": "address"
        },
        {
          "indexed": false,
          "internalType": "uint256",
          "name": "expiry",
          "type": "uint256"
        }
      ],
      "name": "DomainRegistered",
      "type": "event"
    },
    {
      "anonymous": false,
      "inputs": [
        {
          "indexed": true,
          "internalType": "uint256",
          "name": "tokenId",
          "type": "uint256"
        },
        {
          "indexed": false,
          "internalType": "uint256",
          "name": "newExpiry",
          "type": "uint256"
        }
      ],
      "name": "DomainRenewed",
      "type": "event"
    },
    {
      "anonymous": false,
      "inputs": [
        {
          "indexed": false,
          "internalType": "uint64",
          "name": "version",
          "type": "uint64"
        }
      ],
      "name": "Initialized",
      "type": "event"
    },
    {
      "anonymous": false,
      "inputs": [
        {
          "indexed": false,
          "internalType": "uint256",
          "name": "_tokenId",
          "type": "uint256"
        }
      ],
      "name": "MetadataUpdate",
      "type": "event"
    },
    {
      "anonymous": false,
      "inputs": [
        {
          "indexed": true,
          "internalType": "address",
          "name": "to",
          "type": "address"
        },
        {
          "indexed": false,
          "internalType": "uint256",
          "name": "amount",
          "type": "uint256"
        }
      ],
      "name": "PaymentWithdrawn",
      "type": "event"
    },
    {
      "anonymous": false,
      "inputs": [
        {
          "indexed": true,
          "internalType": "uint256",
          "name": "tokenId",
          "type": "uint256"
        },
        {
          "indexed": false,
          "internalType": "address",
          "name": "resolver",
          "type": "address"
        }
      ],
      "name": "ResolverSet",
      "type": "event"
    },
    {
      "anonymous": false,
      "inputs": [
        {
          "indexed": true,
          "internalType": "bytes32",
          "name": "role",
          "type": "bytes32"
        },
        {
          "indexed": true,
          "internalType": "bytes32",
          "name": "previousAdminRole",
          "type": "bytes32"
        },
        {
          "indexed": true,
          "internalType": "bytes32",
          "name": "newAdminRole",
          "type": "bytes32"
        }
      ],
      "name": "RoleAdminChanged",
      "type": "event"
    },
    {
      "anonymous": false,
      "inputs": [
        {
          "indexed": true,
          "internalType": "bytes32",
          "name": "role",
          "type": "bytes32"
        },
        {
          "indexed": true,
          "internalType": "address",
          "name": "account",
          "type": "address"
        },
        {
          "indexed": true,
          "internalType": "address",
          "name": "sender",
          "type": "address"
        }
      ],
      "name": "RoleGranted",
      "type": "event"
    },
    {
      "anonymous": false,
      "inputs": [
        {
          "indexed": true,
          "internalType": "bytes32",
          "name": "role",
          "type": "bytes32"
        },
        {
          "indexed": true,
          "internalType": "address",
          "name": "account",
          "type": "address"
        },
        {
          "indexed": true,
          "internalType": "address",
          "name": "sender",
          "type": "address"
        }
      ],
      "name": "RoleRevoked",
      "type": "event"
    },
    {
      "anonymous": false,
      "inputs": [
        {
          "indexed": true,
          "internalType": "address",
          "name": "from",
          "type": "address"
        },
        {
          "indexed": true,
          "internalType": "address",
          "name": "to",
          "type": "address"
        },
        {
          "indexed": true,
          "internalType": "uint256",
          "name": "tokenId",
          "type": "uint256"
        }
      ],
      "name": "Transfer",
      "type": "event"
    },
    {
      "anonymous": false,
      "inputs": [
        {
          "indexed": true,
          "internalType": "address",
          "name": "implementation",
          "type": "address"
        }
      ],
      "name": "Upgraded",
      "type": "event"
    },
    {
      "inputs": [],
      "name": "DEFAULT_ADMIN_ROLE",
      "outputs": [
        {
          "internalType": "bytes32",
          "name": "",
          "type": "bytes32"
        }
      ],
      "stateMutability": "view",
      "type": "function"
    },
    {
      "inputs": [],
      "name": "GRACE_PERIOD",
      "outputs": [
        {
          "internalType": "uint256",
          "name": "",
          "type": "uint256"
        }
      ],
      "stateMutability": "view",
      "type": "function"
    },
    {
      "inputs": [],
      "name": "REGISTRAR_ROLE",
      "outputs": [
        {
          "internalType": "bytes32",
          "name": "",
          "type": "bytes32"
        }
      ],
      "stateMutability": "view",
      "type": "function"
    },
    {
      "inputs": [],
      "name": "TLD",
      "outputs": [
        {
          "internalType": "string",
          "name": "",
          "type": "string"
        }
      ],
      "stateMutability": "view",
      "type": "function"
    },
    {
      "inputs": [],
      "name": "UPGRADER_ROLE",
      "outputs": [
        {
          "internalType": "bytes32",
          "name": "",
          "type": "bytes32"
        }
      ],
      "stateMutability": "view",
      "type": "function"
    },
    {
      "inputs": [],
      "name": "UPGRADE_INTERFACE_VERSION",
      "outputs": [
        {
          "internalType": "string",
          "name": "",
          "type": "string"
        }
      ],
      "stateMutability": "view",
      "type": "function"
    },
    {
      "inputs": [
        {
          "internalType": "address",
          "name": "to",
          "type": "address"
        },
        {
          "internalType": "uint256",
          "name": "tokenId",
          "type": "uint256"
        }
      ],
      "name": "approve",
      "outputs": [],
      "stateMutability": "nonpayable",
      "type": "function"
    },
    {
      "inputs": [
        {
          "internalType": "string",
          "name": "name",
          "type": "string"
        }
      ],
      "name": "available",
      "outputs": [
        {
          "internalType": "bool",
          "name": "",
          "type": "bool"
        }
      ],
      "stateMutability": "view",
      "type": "function"
    },
    {
      "inputs": [
        {
          "internalType": "address",
          "name": "owner",
          "type": "address"
        }
      ],
      "name": "balanceOf",
      "outputs": [
        {
          "internalType": "uint256",
          "name": "",
          "type": "uint256"
        }
      ],
      "stateMutability": "view",
      "type": "function"
    },
    {
      "inputs": [
        {
          "internalType": "uint256",
          "name": "tokenId",
          "type": "uint256"
        }
      ],
      "name": "clearCustomImage",
      "outputs": [],
      "stateMutability": "nonpayable",
      "type": "function"
    },
    {
      "inputs": [
        {
          "internalType": "uint256",
          "name": "",
          "type": "uint256"
        }
      ],
      "name": "customImages",
      "outputs": [
        {
          "internalType": "string",
          "name": "",
          "type": "string"
        }
      ],
      "stateMutability": "view",
      "type": "function"
    },
    {
      "inputs": [
        {
          "internalType": "uint256",
          "name": "",
          "type": "uint256"
        }
      ],
      "name": "expiryTimes",
      "outputs": [
        {
          "internalType": "uint256",
          "name": "",
          "type": "uint256"
        }
      ],
      "stateMutability": "view",
      "type": "function"
    },
    {
      "inputs": [
        {
          "internalType": "uint256",
          "name": "tokenId",
          "type": "uint256"
        },
        {
          "internalType": "uint256",
          "name": "duration",
          "type": "uint256"
        }
      ],
      "name": "extend",
      "outputs": [],
      "stateMutability": "nonpayable",
      "type": "function"
    },
    {
      "inputs": [
        {
          "internalType": "uint256",
          "name": "tokenId",
          "type": "uint256"
        }
      ],
      "name": "getApproved",
      "outputs": [
        {
          "internalType": "address",
          "name": "",
          "type": "address"
        }
      ],
      "stateMutability": "view",
      "type": "function"
    },
    {
      "inputs": [
        {
          "internalType": "uint256",
          "name": "tokenId",
          "type": "uint256"
        }
      ],
      "name": "getExpiryTime",
      "outputs": [
        {
          "internalType": "uint256",
          "name": "",
          "type": "uint256"
        }
      ],
      "stateMutability": "view",
      "type": "function"
    },
    {
      "inputs": [
        {
          "internalType": "uint256",
          "name": "tokenId",
          "type": "uint256"
        }
      ],
      "name": "getResolver",
      "outputs": [
        {
          "internalType": "address",
          "name": "",
          "type": "address"
        }
      ],
      "stateMutability": "view",
      "type": "function"
    },
    {
      "inputs": [
        {
          "internalType": "bytes32",
          "name": "role",
          "type": "bytes32"
        }
      ],
      "name": "getRoleAdmin",
      "outputs": [
        {
          "internalType": "bytes32",
          "name": "",
          "type": "bytes32"
        }
      ],
      "stateMutability": "view",
      "type": "function"
    },
    {
      "inputs": [
        {
          "internalType": "bytes32",
          "name": "role",
          "type": "bytes32"
        },
        {
          "internalType": "address",
          "name": "account",
          "type": "address"
        }
      ],
      "name": "grantRole",
      "outputs": [],
      "stateMutability": "nonpayable",
      "type": "function"
    },
    {
      "inputs": [
        {
          "internalType": "bytes32",
          "name": "role",
          "type": "bytes32"
        },
        {
          "internalType": "address",
          "name": "account",
          "type": "address"
        }
      ],
      "name": "hasRole",
      "outputs": [
        {
          "internalType": "bool",
          "name": "",
          "type": "bool"
        }
      ],
      "stateMutability": "view",
      "type": "function"
    },
    {
      "inputs": [
        {
          "internalType": "address",
          "name": "admin",
          "type": "address"
        },
        {
          "internalType": "address",
          "name": "royaltyReceiver",
          "type": "address"
        },
        {
          "internalType": "uint96",
          "name": "royaltyFeeNumerator",
          "type": "uint96"
        }
      ],
      "name": "initialize",
      "outputs": [],
      "stateMutability": "nonpayable",
      "type": "function"
    },
    {
      "inputs": [
        {
          "internalType": "address",
          "name": "owner",
          "type": "address"
        },
        {
          "internalType": "address",
          "name": "operator",
          "type": "address"
        }
      ],
      "name": "isApprovedForAll",
      "outputs": [
        {
          "internalType": "bool",
          "name": "",
          "type": "bool"
        }
      ],
      "stateMutability": "view",
      "type": "function"
    },
    {
      "inputs": [
        {
          "internalType": "uint256",
          "name": "tokenId",
          "type": "uint256"
        }
      ],
      "name": "isExpired",
      "outputs": [
        {
          "internalType": "bool",
          "name": "",
          "type": "bool"
        }
      ],
      "stateMutability": "view",
      "type": "function"
    },
    {
      "inputs": [],
      "name": "name",
      "outputs": [
        {
          "internalType": "string",
          "name": "",
          "type": "string"
        }
      ],
      "stateMutability": "view",
      "type": "function"
    },
    {
      "inputs": [
        {
          "internalType": "string",
          "name": "",
          "type": "string"
        }
      ],
      "name": "nameToTokenId",
      "outputs": [
        {
          "internalType": "uint256",
          "name": "",
          "type": "uint256"
        }
      ],
      "stateMutability": "view",
      "type": "function"
    },
    {
      "inputs": [],
      "name": "nextTokenId",
      "outputs": [
        {
          "internalType": "uint256",
          "name": "",
          "type": "uint256"
        }
      ],
      "stateMutability": "view",
      "type": "function"
    },
    {
      "inputs": [
        {
          "internalType": "uint256",
          "name": "tokenId",
          "type": "uint256"
        }
      ],
      "name": "ownerOf",
      "outputs": [
        {
          "internalType": "address",
          "name": "",
          "type": "address"
        }
      ],
      "stateMutability": "view",
      "type": "function"
    },
    {
      "inputs": [],
      "name": "proxiableUUID",
      "outputs": [
        {
          "internalType": "bytes32",
          "name": "",
          "type": "bytes32"
        }
      ],
      "stateMutability": "view",
      "type": "function"
    },
    {
      "inputs": [
        {
          "internalType": "string",
          "name": "name",
          "type": "string"
        },
        {
          "internalType": "address",
          "name": "owner",
          "type": "address"
        },
        {
          "internalType": "uint256",
          "name": "duration",
          "type": "uint256"
        }
      ],
      "name": "register",
      "outputs": [
        {
          "internalType": "uint256",
          "name": "",
          "type": "uint256"
        }
      ],
      "stateMutability": "nonpayable",
      "type": "function"
    },
    {
      "inputs": [
        {
          "internalType": "bytes32",
          "name": "role",
          "type": "bytes32"
        },
        {
          "internalType": "address",
          "name": "callerConfirmation",
          "type": "address"
        }
      ],
      "name": "renounceRole",
      "outputs": [],
      "stateMutability": "nonpayable",
      "type": "function"
    },
    {
      "inputs": [
        {
          "internalType": "uint256",
          "name": "",
          "type": "uint256"
        }
      ],
      "name": "resolvers",
      "outputs": [
        {
          "internalType": "address",
          "name": "",
          "type": "address"
        }
      ],
      "stateMutability": "view",
      "type": "function"
    },
    {
      "inputs": [
        {
          "internalType": "bytes32",
          "name": "role",
          "type": "bytes32"
        },
        {
          "internalType": "address",
          "name": "account",
          "type": "address"
        }
      ],
      "name": "revokeRole",
      "outputs": [],
      "stateMutability": "nonpayable",
      "type": "function"
    },
    {
      "inputs": [
        {
          "internalType": "uint256",
          "name": "tokenId",
          "type": "uint256"
        },
        {
          "internalType": "uint256",
          "name": "salePrice",
          "type": "uint256"
        }
      ],
      "name": "royaltyInfo",
      "outputs": [
        {
          "internalType": "address",
          "name": "receiver",
          "type": "address"
        },
        {
          "internalType": "uint256",
          "name": "amount",
          "type": "uint256"
        }
      ],
      "stateMutability": "view",
      "type": "function"
    },
    {
      "inputs": [
        {
          "internalType": "address",
          "name": "from",
          "type": "address"
        },
        {
          "internalType": "address",
          "name": "to",
          "type": "address"
        },
        {
          "internalType": "uint256",
          "name": "tokenId",
          "type": "uint256"
        }
      ],
      "name": "safeTransferFrom",
      "outputs": [],
      "stateMutability": "nonpayable",
      "type": "function"
    },
    {
      "inputs": [
        {
          "internalType": "address",
          "name": "from",
          "type": "address"
        },
        {
          "internalType": "address",
          "name": "to",
          "type": "address"
        },
        {
          "internalType": "uint256",
          "name": "tokenId",
          "type": "uint256"
        },
        {
          "internalType": "bytes",
          "name": "data",
          "type": "bytes"
        }
      ],
      "name": "safeTransferFrom",
      "outputs": [],
      "stateMutability": "nonpayable",
      "type": "function"
    },
    {
      "inputs": [
        {
          "internalType": "address",
          "name": "operator",
          "type": "address"
        },
        {
          "internalType": "bool",
          "name": "approved",
          "type": "bool"
        }
      ],
      "name": "setApprovalForAll",
      "outputs": [],
      "stateMutability": "nonpayable",
      "type": "function"
    },
    {
      "inputs": [
        {
          "internalType": "uint256",
          "name": "tokenId",
          "type": "uint256"
        },
        {
          "internalType": "string",
          "name": "imageURI",
          "type": "string"
        }
      ],
      "name": "setCustomImage",
      "outputs": [],
      "stateMutability": "nonpayable",
      "type": "function"
    },
    {
      "inputs": [
        {
          "internalType": "address",
          "name": "receiver",
          "type": "address"
        },
        {
          "internalType": "uint96",
          "name": "feeNumerator",
          "type": "uint96"
        }
      ],
      "name": "setDefaultRoyalty",
      "outputs": [],
      "stateMutability": "nonpayable",
      "type": "function"
    },
    {
      "inputs": [
        {
          "internalType": "uint256",
          "name": "tokenId",
          "type": "uint256"
        },
        {
          "internalType": "address",
          "name": "resolver",
          "type": "address"
        }
      ],
      "name": "setResolver",
      "outputs": [],
      "stateMutability": "nonpayable",
      "type": "function"
    },
    {
      "inputs": [
        {
          "internalType": "bytes4",
          "name": "interfaceId",
          "type": "bytes4"
        }
      ],
      "name": "supportsInterface",
      "outputs": [
        {
          "internalType": "bool",
          "name": "",
          "type": "bool"
        }
      ],
      "stateMutability": "view",
      "type": "function"
    },
    {
      "inputs": [],
      "name": "symbol",
      "outputs": [
        {
          "internalType": "string",
          "name": "",
          "type": "string"
        }
      ],
      "stateMutability": "view",
      "type": "function"
    },
    {
      "inputs": [
        {
          "internalType": "uint256",
          "name": "tokenId",
          "type": "uint256"
        }
      ],
      "name": "timeUntilExpiry",
      "outputs": [
        {
          "internalType": "uint256",
          "name": "",
          "type": "uint256"
        }
      ],
      "stateMutability": "view",
      "type": "function"
    },
    {
      "inputs": [
        {
          "internalType": "uint256",
          "name": "index",
          "type": "uint256"
        }
      ],
      "name": "tokenByIndex",
      "outputs": [
        {
          "internalType": "uint256",
          "name": "",
          "type": "uint256"
        }
      ],
      "stateMutability": "view",
      "type": "function"
    },
    {
      "inputs": [
        {
          "internalType": "uint256",
          "name": "",
          "type": "uint256"
        }
      ],
      "name": "tokenIdToName",
      "outputs": [
        {
          "internalType": "string",
          "name": "",
          "type": "string"
        }
      ],
      "stateMutability": "view",
      "type": "function"
    },
    {
      "inputs": [
        {
          "internalType": "address",
          "name": "owner",
          "type": "address"
        },
        {
          "internalType": "uint256",
          "name": "index",
          "type": "uint256"
        }
      ],
      "name": "tokenOfOwnerByIndex",
      "outputs": [
        {
          "internalType": "uint256",
          "name": "",
          "type": "uint256"
        }
      ],
      "stateMutability": "view",
      "type": "function"
    },
    {
      "inputs": [
        {
          "internalType": "uint256",
          "name": "tokenId",
          "type": "uint256"
        }
      ],
      "name": "tokenURI",
      "outputs": [
        {
          "internalType": "string",
          "name": "",
          "type": "string"
        }
      ],
      "stateMutability": "view",
      "type": "function"
    },
    {
      "inputs": [],
      "name": "totalSupply",
      "outputs": [
        {
          "internalType": "uint256",
          "name": "",
          "type": "uint256"
        }
      ],
      "stateMutability": "view",
      "type": "function"
    },
    {
      "inputs": [
        {
          "internalType": "address",
          "name": "from",
          "type": "address"
        },
        {
          "internalType": "address",
          "name": "to",
          "type": "address"
        },
        {
          "internalType": "uint256",
          "name": "tokenId",
          "type": "uint256"
        }
      ],
      "name": "transferFrom",
      "outputs": [],
      "stateMutability": "nonpayable",
      "type": "function"
    },
    {
      "inputs": [
        {
          "internalType": "address",
          "name": "newImplementation",
          "type": "address"
        },
        {
          "internalType": "bytes",
          "name": "data",
          "type": "bytes"
        }
      ],
      "name": "upgradeToAndCall",
      "outputs": [],
      "stateMutability": "payable",
      "type": "function"
    },
    {
      "inputs": [],
      "name": "withdraw",
      "outputs": [],
      "stateMutability": "nonpayable",
      "type": "function"
    },
    {
      "stateMutability": "payable",
      "type": "receive"
    }
  ],
  "bytecode": "0x60a080604052346100ea57306080527ff0c57e16840df040f15088dc2f81fe391c3923bec73e23a9662efc9c229c6a005460ff8160401c166100d9576002600160401b03196001600160401b03821601610073575b604051614a8e90816100f0823960805181818161228b015261237d0152f35b6001600160401b0319166001600160401b039081177ff0c57e16840df040f15088dc2f81fe391c3923bec73e23a9662efc9c229c6a005581527fc7f505b2f371ae2175ee4913f4499e1f2633a7b5936321eed1cdaeb6115181d290602090a13880610054565b63f92ee8a960e01b60005260046000fd5b600080fdfe608080604052600436101561001d575b50361561001b57600080fd5b005b60003560e01c90816301ffc9a714612c6f5750806304634d8d14612c3257806306fdde0314612b70578063081812fc14612b25578063095ea7b314612a3357806313a0bd7e14612a1757806318160ddd146129ec57806323b872dd1461296b578063248a9ca31461294d5780632a55205a146128ca5780632f2ff15d146128995780632f745c591461281457806336568abe146127ce5780633ccfd60b146126fe57806342842e0e146125835780634f1ef286146123405780634f6ccce7146122e257806352d1902d146122785780636352211e146122485780636b31be94146121a157806370a082311461217e57806375794a3c1461216057806391d148541461210657806395d89b411461201f578063a217fddf14612003578063a22cb46514611f67578063ad3cb1cc14611f20578063aeb8ce9b14611ee6578063b158fd5c14611bd2578063b88d4fde14611cf6578063bc7b6d6214611c50578063c1a287e214611c32578063c39c5c6814611c06578063c60c835e14611bd2578063c861c250146116b1578063c87b56dd146107d1578063c89258db146106cb578063cae2740c146106ad578063ccac5bd1146105f5578063d393c87114610657578063d547741f14610621578063d831a7c6146105f5578063d9548e53146105cd578063da2bfdb114610589578063dd0012541461052d578063e985e9c5146104df578063f68e9553146104a4578063f6c49eac146102855763f72c0d8b14610245573861000f565b346102805760003660031901126102805760206040517f189ab7a9244df0848122154315af71fe140f3db0fe014031783b0946b8c9d2e38152f35b600080fd5b34610280576040366003190112610280576024356004356001600160401b0382116102805736602383011215610280578160040135916001600160401b0383116102805736602484830101116102805781600052600460205260406000205462278d00810180911161048e576102fc904210612f2c565b61031861030883613b20565b6001600160a01b03163314613077565b81600052600660205260406000209260009361033e826103388354612e41565b83613216565b8485601f84116001146103ea576040602095858896956103a882600080516020614a198339815191529b987fe5f41af9ee60cee37873ffb5b90eb4594675c839bb2aa4413fbaf9bcf8c3811698602498916103dd575b508160011b916000199060031b1c19161790565b90555b8083519485938a8552828b860152018484013781810183018a9052601f01601f19168101030190a2604051908152a180f35b889150860101358e610394565b508186526020862090601f198416875b8181106104735750602095858896957fe5f41af9ee60cee37873ffb5b90eb4594675c839bb2aa4413fbaf9bcf8c3811695602495600080516020614a198339815191529b9860409610610457575b5050600182811b0190556103ab565b8401860135600019600385901b60f8161c191690558b80610448565b91926020600181926024878b010135815501940192016103fa565b634e487b7160e01b600052601160045260246000fd5b346102805760003660031901126102805760206040517fedcc084d3dcd65a1f7f23c65c46722faca6953d28e43150a467cf43e5c3092388152f35b34610280576040366003190112610280576104f8612cdc565b610509610503612cf2565b91612f8a565b9060018060a01b0316600052602052602060ff604060002054166040519015158152f35b34610280576020366003190112610280576004356001600160401b03811161028057610576602061056381933690600401612dfc565b8160405193828580945193849201612d08565b8101600281520301902054604051908152f35b346102805760203660031901126102805760043560005260036020526105c96105b56040600020612e7b565b604051918291602083526020830190612d2b565b0390f35b346102805760203660031901126102805760206105eb600435613955565b6040519015158152f35b346102805760203660031901126102805760043560005260046020526020604060002054604051908152f35b346102805760403660031901126102805761001b600435610640612cf2565b9061065261064d82612f69565b613a3b565b613d74565b34610280576060366003190112610280576004356001600160401b038111610280576106a561068c6020923690600401612dfc565b610694612cf2565b61069c6139c9565b6044359161327c565b604051908152f35b346102805760203660031901126102805760206106a560043561318a565b34610280576106d936612de6565b6106e16139c9565b6001600160a01b036106f283613e14565b1615610799578160005260046020526040600020549162278d00830180931161048e57807f4cc60e1d0b3d78e2a94015221f7924c4602570e4e2a55ac3514805c10f330e5360208094600080516020614a1983398151915296421060001461078a5761076b908460005260048352604060002054612f1f565b836000526004825280604060002055604051908152a2604051908152a1005b6107949042612f1f565b61076b565b60405162461bcd60e51b815260206004820152601060248201526f111bdb585a5b881b9bdd08199bdd5b9960821b6044820152606490fd5b34610280576020366003190112610280576004356001600160a01b036107f682613e14565b16156116755761080e61080882613955565b15612f2c565b8060005260036020526108246040600020612e7b565b9061082d612d8c565b6040519160208301936108728460208351958185019661084e818b8a612d08565b830161086282518093858085019101612d08565b010103601f198101865285612d50565b816000526006602052610889604060002054612e41565b15610c0e578160005260066020526108a46040600020612e7b565b925b8260005260046020526108bd604060002054613ed5565b916108c88151613ed5565b9360005260046020526040600020546301e1337f19810190811161048e576108ef90613ed5565b94604051978897683d913730b6b2911d1160b91b60208a015251908160298a0161091892612d08565b7f222c226465736372697074696f6e223a22536f6e6963204e616d6520536572766029918901918201527f696365202d205765623320446f6d61696e206f6e20536f6e696320426c6f636b60498201526618da185a5b888b60ca1b6069820152681134b6b0b3b2911d1160b91b60708201528151916109a09083906079840190602001612d08565b0160290190605082017f222c2265787465726e616c5f75726c223a2268747470733a2f2f736e732e6b72905260708201736f776e6c6162732e6170702f70726f66696c652f60601b9052519182608483016109fa92612d08565b016050016f222c2261747472696275746573223a5b60801b6034820152604481017f7b2274726169745f74797065223a22457870697279222c2276616c7565223a22905281519182606483019160200191610a5492612d08565b016034016030810178088b08991a5cdc1b185e57dd1e5c19488e8899185d19489f4b603a1b9052604981017f7b2274726169745f74797065223a224c656e677468222c2276616c7565223a00905281519182606883019160200191610ab892612d08565b0160300160388101611f4b60f21b9052603a81017f7b2274726169745f74797065223a22526567697374726174696f6e204461746590526a1116113b30b63ab2911d1160a91b605a82015281519182606583019160200191610b1992612d08565b78088b08991a5cdc1b185e57dd1e5c19488e8899185d19489f4b603a1b910160658101919091527f7b2274726169745f74797065223a22537461747573222c2276616c7565223a22607e82015267416374697665227d60c01b609e820152615d7d60f01b60a682015203608881018252610b969060a80182612d50565b610b9f90613e3c565b6040518091602082017f646174613a6170706c69636174696f6e2f6a736f6e3b6261736536342c000000905280519081603d84019160200191610be192612d08565b810103603d01601f1981018252610bf89082612d50565b604051809160208252602082016105c991612d2b565b61161b6115f6611616600661070d89610c278a516147db565b610d34600760268d6079604051968792610d1360208501987f3c7465787420783d223235302220793d223339362220666f6e742d66616d696c8a527f793d224d6f6e747365727261742c2073616e732d73657269662220666f6e742d60408701526d03bb2b4b3b43a1e913137b63211160951b60608701526a3337b73a16b9b4bd329e9160a91b606e870152610cc6815180926020888a019101612d08565b85019161011160f51b858401527f66696c6c3d22234645394134432220746578742d616e63686f723d226d696464607b840152633632911f60e11b609b840152518093609f840190612d08565b0101661e17ba32bc3a1f60c91b838201520301601819810185520183612d50565b604080517f3c7376672077696474683d2235303022206865696768743d223530302220766960208201527f6577426f783d223020302035303020353030222066696c6c3d226e6f6e652220918101919091527f786d6c6e733d22687474703a2f2f7777772e77332e6f72672f323030302f737660608201526233911f60e91b60808201527f3c726563742077696474683d2235303022206865696768743d2235303022206660838201526e34b6361e9111989a189a189b11179f60891b60a38201527f3c7061746820643d224d3130372e323231203131332e3838314c3130372e323360b28201527f33203131332e383734433130372e323333203131332e383734203130372e323260d28201527f31203131332e383831203130372e323134203131332e383835433130372e323160f28201527f38203131332e383835203130372e323231203131332e383835203130372e32326101128201527f35203131332e3838354c3130372e323231203131332e3838315a222066696c6c6101328201526b1e9111a31aa31aa31a91179f60a11b6101528201527f3c7061746820643d224d3130372e323134203131332e3838354339312e30353661015e8201527f35203131382e3733382037372e36393438203132352e3831372036392e33323461017e8201527f34203133342e3130384c36382e39353531203133342e3437384337312e31383161019e8201527f34203133362e3538332037332e36323138203133382e3436382037362e3235386101be8201527f39203134302e30374c37362e383235203133392e3337364337392e31312031336101de8201527f362e3538332038312e35363038203133332e3838382038342e313131362031336101fe8201527f312e3334374339302e39353634203132342e3532362039382e3738343920313161021e8201527f382e363234203130372e323134203131332e3838355a222066696c6c3d22234661023e820152671aa31aa31a91179f60c11b61025e8201527f3c7061746820643d224d3130392e303832203130362e3639314835352e3734326102668201527f324335362e33383737203131352e3334352035392e36303132203132332e32386102868201527f2036342e36343432203132392e3733354c36342e38373534203132392e3530346102a68201527f4337302e30353635203132342e3339322037362e38303132203131392e3734366102c68201527f2038342e39333639203131352e3639374339322e30363831203131322e3134356102e68201527f203130302e323536203130392e303937203130392e303832203130362e363931610306820152722d11103334b6361e9111a31aa31aa31a91179f60691b6103268201527f3c7061746820643d224d38382e363333322037312e31323434433130332e30396103398201527f322038352e35333139203132312e32392039352e30353837203134312e3235316103598201527f2039382e36373236433133382e3834352037372e33313333203132302e3636356103798201527f2036302e373030322039382e353734322036302e373030324339322e373430386103998201527f2036302e373030322038372e31382036312e383633342038322e3130323520366103b98201527f332e393632314338342e313633322036362e343433392038362e3336353420366103d98201527f382e383630312038382e363333322037312e313237395637312e313234345a226103f982015270103334b6361e9111a31aa31aa31a91179f60791b6104198201527f3c7061746820643d224d36392e333233392037322e383838334337372e36393461042a8201527f332038312e313933322039312e303632382038382e32363233203130372e323261044a8201527f342039332e313235384339382e373837382038382e333736322039302e39353261046a8201527f342038322e343737322038342e313034322037352e363533324338312e35363061048a8201527f332037332e313139362037392e3131332037302e343233382037362e383137366104aa8201527f2036372e363234354c37362e323531352036362e393330374337332e363134346104ca8201527f2036382e353332332037312e3137342037302e343133352036382e39353820376104ea8201527f322e3531394c36392e333237332037322e383838334836392e333233395a222061050a8201526f3334b6361e9111a31aa31aa31a91179f60811b61052a8201527f3c7061746820643d224d38382e36333332203133352e3837324338362e33353561053a8201527f31203133382e3133392038342e31353633203134302e3535362038322e31303261055a8201527f35203134332e3033374338372e31373331203134352e3133362039322e37343061057a8201527f38203134362e3239392039382e35373432203134362e323939433132302e363661059a8201527f35203134362e323939203133382e383435203132392e363833203134312e32356105ba8201527f38203130382e333136433132312e33203131312e3933203130332e31303320316105da8201527f32312e3435372038382e36343031203133352e3836354c38382e3633333220316105fa8201527f33352e3837325a222066696c6c3d2223463546354635222f3e0000000000000061061a8201527f3c7061746820643d224d38342e393236352039312e323839355639312e3239366106338201527f344337362e373937372038372e323437362037302e303536352038322e3539386106538201527f312036342e383735352037372e3439334c36342e363434322037372e323631376106738201527f4335392e363031322038332e373136342035362e333837372039312e363532206106938201527f35352e37343232203130302e333035483130392e303731433130302e323439206106b38201527f39372e383939362039322e303638312039342e383531372038342e39323635206106d38201527f39312e323839355a222066696c6c3d2223463546354635222f3e0000000000006106f382015291519195869291829085850190612d08565b8101651e17b9bb339f60d11b838201520301601919810184520182612d50565b613e3c565b61166f603a60405180937f646174613a696d6167652f7376672b786d6c3b6261736536342c000000000000602083015261165e8151809260208686019101612d08565b81010301601f198101835282612d50565b926108a6565b60405162461bcd60e51b8152602060048201526014602482015273151bdad95b88191bd95cc81b9bdd08195e1a5cdd60621b6044820152606490fd5b34610280576060366003190112610280576116ca612cdc565b6116d2612cf2565b6044356001600160601b0381168103610280576000805160206149f9833981519152549060ff8260401c1615916001600160401b03811680159081611bca575b6001149081611bc0575b159081611bb7575b50611ba65767ffffffffffffffff1981166001176000805160206149f98339815191525582611b79575b5060409283519461175f8587612d50565b6012865271536f6e6963204e616d65205365727669636560701b6020870152611786612d8c565b9561178f6142bf565b6117976142bf565b8051906001600160401b038211611a52576117c060008051602061491983398151915254612e41565b601f8111611b13575b50602090601f8311600114611a73576117fb929160009183611a68575b50508160011b916000199060031b1c19161790565b600080516020614919833981519152555b85516001600160401b038111611a5257611834600080516020614a3983398151915254612e41565b601f81116119e2575b506020601f821160011461195757816118e39392611877926118ee98999a60009261194c5750508160011b916000199060031b1c19161790565b600080516020614a39833981519152555b6118906142bf565b6118986142bf565b6118a06142bf565b6118a86142bf565b60017f9b779b17422d0df92223018b32b4d1fa46e071723d6817e2486d003becc55f00556118d46142bf565b6118dd81613b51565b50613bfd565b506001600755613a85565b6118f457005b60207fc7f505b2f371ae2175ee4913f4499e1f2633a7b5936321eed1cdaeb6115181d29168ff0000000000000000196000805160206149f983398151915254166000805160206149f9833981519152555160018152a1005b015190508a806117e6565b601f19821697600080516020614a39833981519152600052816000209860005b8181106119ca57509860019284926118e396956118ee9a9b9c106119b1575b505050811b01600080516020614a3983398151915255611888565b015160001960f88460031b161c19169055898080611996565b838301518b556001909a019960209384019301611977565b8181111561183d57600080516020614a39833981519152600052611a43907ff4bad0a69248f59680a4f2b3000328cec71a413447c96781cfe5996daa8c456e90601f840160051c9060208510611a49575b601f82910160051c0391016130af565b8761183d565b60009150611a33565b634e487b7160e01b600052604160045260246000fd5b0151905089806117e6565b90601f198316916000805160206149198339815191526000527f37c58c799b6609234b945e882912ee9ad34948a1dfaa20a97485e1a7752bbf819260005b818110611afb5750908460019594939210611ae2575b505050811b016000805160206149198339815191525561180c565b015160001960f88460031b161c19169055888080611ac7565b92936020600181928786015181550195019301611ab1565b828111156117c957600080516020614919833981519152600052611b73907f37c58c799b6609234b945e882912ee9ad34948a1dfaa20a97485e1a7752bbf8190601f850160051c9060208610611a4957601f82910160051c0391016130af565b886117c9565b68ffffffffffffffffff191668010000000000000001176000805160206149f9833981519152558461174e565b63f92ee8a960e01b60005260046000fd5b90501586611724565b303b15915061171c565b849150611712565b34610280576020366003190112610280576004356000526005602052602060018060a01b0360406000205416604051908152f35b346102805760203660031901126102805760043560005260066020526105c96105b56040600020612e7b565b3461028057600036600319011261028057602060405162278d008152f35b3461028057604036600319011261028057600435611c6c612cf2565b81600052600460205260406000205462278d00810180911161048e577fa949d469e37bee76d0d9341dae642ba2f574dca8b5e6f277e8ff8d453ab543c291611cb76020924210612f2c565b611cc361030885613b20565b60008481526005835260409081902080546001600160a01b0319166001600160a01b0393909316928317905551908152a2005b3461028057608036600319011261028057611d0f612cdc565b611d17612cf2565b90604435906064356001600160401b03811161028057611d3b903690600401612dfc565b9180600052600460205260406000205462278d00810180911161048e57611d63904210612f2c565b80600052600460205260406000205462278d00810180911161048e57611d8a904210612f2c565b6001600160a01b038416938415611ed057611da63383836143e9565b6001600160a01b039384169316838103611eb457503b611dc257005b602091611dfb6040519485938493630a85bd0160e11b855233600486015260248501526044840152608060648401526084830190612d2b565b03816000865af18091600091611e6a575b5090611e3d5750611e1b612ffc565b80519081611e385782633250574960e11b60005260045260246000fd5b602001fd5b6001600160e01b03191663757a42ff60e11b01611e5657005b633250574960e11b60005260045260246000fd5b6020813d602011611eac575b81611e8360209383612d50565b81010312611ea85751906001600160e01b031982168203611ea5575083611e0c565b80fd5b5080fd5b3d9150611e76565b82846364283d7b60e01b60005260045260245260445260646000fd5b633250574960e11b600052600060045260246000fd5b34610280576020366003190112610280576004356001600160401b038111610280576105eb611f1b6020923690600401612dfc565b61314e565b34610280576000366003190112610280576105c96040805190611f438183612d50565b60058252640352e302e360dc1b602083015251918291602083526020830190612d2b565b3461028057604036600319011261028057611f80612cdc565b60243590811515809203610280576001600160a01b0316908115611fee57611fa733612f8a565b82600052602052604060002060ff1981541660ff83161790556040519081527f17307eab39ab6107e8899845ad3d59bd9653f200f220920489ca2b5937696c3160203392a3005b50630b61174360e31b60005260045260246000fd5b3461028057600036600319011261028057602060405160008152f35b34610280576000366003190112610280576040516000600080516020614a398339815191525461204e81612e41565b80845290600181169081156120e25750600114612076575b6105c9836105b581850382612d50565b600080516020614a3983398151915260009081527ff4bad0a69248f59680a4f2b3000328cec71a413447c96781cfe5996daa8c456e939250905b8082106120c8575090915081016020016105b5612066565b9192600181602092548385880101520191019092916120b0565b60ff191660208086019190915291151560051b840190910191506105b59050612066565b346102805760403660031901126102805761211f612cf2565b60043560005260008051602061499983398151915260205260406000209060018060a01b0316600052602052602060ff604060002054166040519015158152f35b34610280576000366003190112610280576020600754604051908152f35b346102805760203660031901126102805760206106a561219c612cdc565b61311c565b346102805760203660031901126102805760043580600052600460205260406000205462278d00810180911161048e57600080516020614a19833981519152916121ee6020924210612f2c565b6121fa61030882613b20565b806000526006825261220f60406000206130cc565b807fe5f41af9ee60cee37873ffb5b90eb4594675c839bb2aa4413fbaf9bcf8c3811660408051858152600086820152a2604051908152a1005b34610280576020366003190112610280576020612266600435613b20565b6040516001600160a01b039091168152f35b34610280576000366003190112610280577f00000000000000000000000000000000000000000000000000000000000000006001600160a01b031630036122d15760206040516000805160206149598339815191528152f35b63703e46dd60e11b60005260046000fd5b3461028057602036600319011261028057600435600080516020614979833981519152548110156123275761231860209161302c565b90549060031b1c604051908152f35b63295f44f760e21b600052600060045260245260446000fd5b604036600319011261028057612354612cdc565b6024356001600160401b03811161028057612373903690600401612dfc565b6001600160a01b037f000000000000000000000000000000000000000000000000000000000000000016308114908115612560575b506122d1573360009081527fab71e3f32666744d246edff3f96e4bdafee2e9867098cdd118a979a7464786a8602052604090205460ff1615612527576040516352d1902d60e01b81526001600160a01b0383169290602081600481875afa600091816124f3575b506124295783634c9c8ce360e01b60005260045260246000fd5b806000805160206149598339815191528592036124df5750813b156124cb5760008051602061495983398151915280546001600160a01b031916821790557fbc7cd75a20ee27fd9adebab32041f755214dbc6bffa90cc0225b39da2e5c2d3b600080a28151156124b15760008083602061001b95519101845af46124ab612ffc565b91614877565b5050346124ba57005b63b398979f60e01b60005260046000fd5b634c9c8ce360e01b60005260045260246000fd5b632a87526960e21b60005260045260246000fd5b9091506020813d60201161251f575b8161250f60209383612d50565b810103126102805751908561240f565b3d9150612502565b63e2517d3f60e01b600052336004527f189ab7a9244df0848122154315af71fe140f3db0fe014031783b0946b8c9d2e360245260446000fd5b600080516020614959833981519152546001600160a01b031614159050836123a8565b346102805761259136612dac565b6040519192602092916125a48484612d50565b60008352806000526004845260406000205462278d00810180911161048e576125ce904210612f2c565b806000526004845260406000205462278d00810180911161048e576125f4904210612f2c565b6001600160a01b038516948515611ed0576126103383836143e9565b6001600160a01b039384169316838103611eb457503b61262c57005b83916126646040519485938493630a85bd0160e11b855233600486015260248501526044840152608060648401526084830190612d2b565b03816000875af180916000916126c0575b50906126a55750612684612ffc565b80519190826126a25783633250574960e11b60005260045260246000fd5b01fd5b6001600160e01b03191663757a42ff60e11b019050611e5657005b8381813d83116126f7575b6126d58183612d50565b81010312611ea85751906001600160e01b031982168203611ea5575084612675565b503d6126cb565b3461028057600036600319011261028057612717613976565b47801561279c57600080808084335af161272f612ffc565b5015612763576040519081527f84511ecc081974f18e7f3e0dcc19db078b55bbd3852ddd0dd85b3aebb7bf94c260203392a2005b60405162461bcd60e51b815260206004820152601160248201527015da5d1a191c985dd85b0819985a5b1959607a1b6044820152606490fd5b60405162461bcd60e51b815260206004820152600a6024820152694e6f2062616c616e636560b01b6044820152606490fd5b34610280576040366003190112610280576127e7612cf2565b336001600160a01b038216036128035761001b90600435613d74565b63334bd91960e11b60005260046000fd5b346102805760403660031901126102805761282d612cdc565b6024359061283a8161311c565b82101561287a5760018060a01b03166000526000805160206148f98339815191526020526040600020906000526020526020604060002054604051908152f35b63295f44f760e21b60005260018060a01b031660045260245260446000fd5b346102805760403660031901126102805761001b6004356128b8612cf2565b906128c561064d82612f69565b613ccb565b34610280576128d836612de6565b600091825260016020526040909120546001600160a01b0381169060a01c8115612935575b6001600160601b03169182810292818404149015171561048e57604080516001600160a01b0390921682526127109092046020820152f35b50506000546001600160a01b0381169060a01c6128fd565b346102805760203660031901126102805760206106a5600435612f69565b346102805761297936612dac565b9081600052600460205260406000205462278d00810180911161048e576129a1904210612f2c565b6001600160a01b03811615611ed0576129bc908233916143e9565b6001600160a01b0390811692168083036129d257005b6364283d7b60e01b60005260045260245260445260646000fd5b3461028057600036600319011261028057602060008051602061497983398151915254604051908152f35b34610280576000366003190112610280576105c96105b5612d8c565b3461028057604036600319011261028057612a4c612cdc565b602435612a5881613b20565b33151580612b12575b80612aee575b612ad95781906001600160a01b0384811691167f8c5be1e5ebec7d5bd14f71427d1e84f3dd0314c0f7b2291e5b200ac8c7c3b925600080a460009081526000805160206149d98339815191526020526040902080546001600160a01b0319166001600160a01b03909216919091179055005b63a9fbf51f60e01b6000523360045260246000fd5b50612af881612f8a565b336000908152602091909152604090205460ff1615612a67565b506001600160a01b038116331415612a61565b34610280576020366003190112610280576020612266600435612b4781613b20565b5060009081526000805160206149d983398151915260205260409020546001600160a01b031690565b3461028057600036600319011261028057604051600060008051602061491983398151915254612b9f81612e41565b80845290600181169081156120e25750600114612bc6576105c9836105b581850382612d50565b60008051602061491983398151915260009081527f37c58c799b6609234b945e882912ee9ad34948a1dfaa20a97485e1a7752bbf81939250905b808210612c18575090915081016020016105b5612066565b919260018160209254838588010152019101909291612c00565b3461028057604036600319011261028057612c4b612cdc565b6024356001600160601b03811681036102805761001b91612c6a613976565b613a85565b34610280576020366003190112610280576004359063ffffffff60e01b821680920361028057602091632483248360e11b8114908115612cb1575b5015158152f35b63152a902d60e11b811491508115612ccb575b5083612caa565b6301ffc9a760e01b14905083612cc4565b600435906001600160a01b038216820361028057565b602435906001600160a01b038216820361028057565b60005b838110612d1b5750506000910152565b8181015183820152602001612d0b565b90602091612d4481518092818552858086019101612d08565b601f01601f1916010190565b90601f801991011681019081106001600160401b03821117611a5257604052565b6001600160401b038111611a5257601f01601f191660200190565b60405190612d9b604083612d50565b60028252612e7360f01b6020830152565b6060906003190112610280576004356001600160a01b038116810361028057906024356001600160a01b0381168103610280579060443590565b6040906003190112610280576004359060243590565b81601f8201121561028057602081359101612e1682612d71565b92612e246040519485612d50565b828452828201116102805781600092602092838601378301015290565b90600182811c92168015612e71575b6020831014612e5b57565b634e487b7160e01b600052602260045260246000fd5b91607f1691612e50565b9060405191826000825492612e8f84612e41565b8084529360018116908115612efd5750600114612eb6575b50612eb492500383612d50565b565b90506000929192526020600020906000915b818310612ee1575050906020612eb49282010138612ea7565b6020919350806001915483858901015201910190918492612ec8565b905060209250612eb494915060ff191682840152151560051b82010138612ea7565b9190820180921161048e57565b15612f3357565b60405162461bcd60e51b815260206004820152600e60248201526d111bdb585a5b88195e1c1a5c995960921b6044820152606490fd5b60005260008051602061499983398151915260205260016040600020015490565b6001600160a01b031660009081527f80bb2b638cc20bc4d0a60d66940f3ab4a00c1d7b313497ca82fb0b4ab00793056020526040902090565b6001600160a01b031660009081527f80bb2b638cc20bc4d0a60d66940f3ab4a00c1d7b313497ca82fb0b4ab00793036020526040902090565b3d15613027573d9061300d82612d71565b9161301b6040519384612d50565b82523d6000602084013e565b606090565b600080516020614979833981519152548110156130615760008051602061497983398151915260005260206000200190600090565b634e487b7160e01b600052603260045260246000fd5b1561307e57565b60405162461bcd60e51b81526020600482015260096024820152682737ba1037bbb732b960b91b6044820152606490fd5b60005b8281106130be57505050565b6000828201556001016130b2565b6130d68154612e41565b90816130e0575050565b81601f600093116001146130f2575055565b8183526020832061310f91601f0160051c841901906001016130af565b8082528160208120915555565b6001600160a01b038116156131385761313490612fc3565b5490565b6322718ad960e21b600052600060045260246000fd5b6020613167918160405193828580945193849201612d08565b810160028152030190205480156131845761318190613955565b90565b50600190565b61319381613955565b6131c8578060005260046020526040600020544210156131c857600052600460205260406000205442810390811161048e5790565b50600090565b156131d557565b60405162461bcd60e51b815260206004820152600a6024820152692730b6b2903a30b5b2b760b11b6044820152606490fd5b600019811461048e5760010190565b91601f821161322457505050565b80821161323057505050565b612eb4926000526020600020916020601f830160051c9210611a4957601f82910160051c0391016130af565b61327490602060405192828480945193849201612d08565b810103902090565b909291604051938251946020818186019761329881838b612d08565b810160028152030190205494851595861561343957506132ba602095966131ce565b6132e06007549586926132cc84613207565b600755604051809381928951928391612d08565b81016002815203019020558360005260036020526040600020908351926001600160401b038411611a52578261331b85610338899654612e41565b602094601f81116001146133cd578061334f916133589596976000916133c257508160011b916000199060031b1c19161790565b90555b42612f1f565b826000526004602052604060002055613371828261401f565b8160005260046020527f951307fdd9dfc2a4ef4c8376bb35a36cdcfae7e683b21f3d3756ef72a40e22b060206133ac6040600020549561325c565b6040519586526001600160a01b0390931694a490565b905088015138610394565b601f1981169582600052806000209660005b81811061341e575096829160019361335897989910613405575b5050811b019055613352565b89015160001960f88460031b161c1916905538806133f9565b8983015189556001909801978a9750602092830192016133df565b955061345061344b8795939495613955565b6131ce565b6001600160a01b0361346187613e14565b16613672575b9460209495816000526003865261348160406000206130cc565b816000526004865260006040812055816000526005865260406000206001600160601b0360a01b815416905581600052600686526134c260406000206130cc565b6134e86007549687926134d484613207565b600755604051809381928851928391612d08565b81016002815203019020558460005260036020526040600020928251946001600160401b038611611a525784613523876103388a9854612e41565b602096601f8111600114613603579161355b9161334f8489969560209b6000916135f857508160011b916000199060031b1c19161790565b8260005260048752604060002055613573828261401f565b7f10fffe13a41a4b1261499fd91f0445f8b46b18c50e5ad1372cb5ff132507f50e61359d8561325c565b6040519485526001600160a01b03909216968794a48160005260046020527f951307fdd9dfc2a4ef4c8376bb35a36cdcfae7e683b21f3d3756ef72a40e22b060206135ed6040600020549361325c565b92604051908152a490565b905089015138610394565b601f1981169782600052806000209860005b81811061365757508260209a61355b95938b9897956001941061363e575050811b019055613352565b8a015160001960f88460031b161c1916905538806133f9565b888301518b556001909a01998b995060209283019201613615565b600061367d87613e14565b6001600160a01b03811680159290831580613936575b8a83526000805160206149b98339815191526020526040832080546001600160a01b03191690558a83837fddf252ad1be2c89b69c2b068fc378daa952ba7f163c4a11628f55a4df523b3ef8280a4841561388157505060008051602061497983398151915254898252600080516020614939833981519152602052806040832055600160401b81101561386d578961374182600161375a94016000805160206149798339815191525561302c565b90919082549060031b91821b91600019901b1916179055565b6000805160206149798339815191525460001981019081116138595789825260008051602061493983398151915260205261379960408320549161302c565b90549060031b1c6137ad816137418461302c565b825260008051602061493983398151915260205260408220558881526000805160206149398339815191526020528060408120556000805160206149798339815191525490811561384557506000190161381a6138098261302c565b8154906000199060031b1b19169055565b6000805160206149798339815191525550156134675785637e27328960e01b60005260045260246000fd5b634e487b7160e01b81526031600452602490fd5b634e487b7160e01b82526011600452602482fd5b634e487b7160e01b82526041600452602482fd5b61388c575b5061375a565b6138958361311c565b8a83526000805160206148d983398151915260205260408320549183526000805160206148f983398151915260205260408320918181036138fe575b508a83526000805160206148d9833981519152602052826040812055825260205280604081205538613886565b8184528260205260408420548185528360205280604086205584526000805160206148d98339815191526020526040842055386138d1565b61393f8b614293565b61394884612fc3565b8054600019019055613693565b600052600460205260406000205462278d00810180911161048e5742101590565b3360009081527fb7db2dd08fcb62d0c9e08c51941cae53c267786a0b75803fb7960902fc8ef97d602052604090205460ff16156139af57565b63e2517d3f60e01b60005233600452600060245260446000fd5b3360009081527f07966f2ab141347034724e9b2a472c2f77f5cd745aeba27cacba797b8fcb7086602052604090205460ff1615613a0257565b63e2517d3f60e01b600052336004527fedcc084d3dcd65a1f7f23c65c46722faca6953d28e43150a467cf43e5c30923860245260446000fd5b60008181526000805160206149998339815191526020908152604080832033845290915290205460ff1615613a6d5750565b63e2517d3f60e01b6000523360045260245260446000fd5b6001600160601b038216906127108211613b05576001600160a01b0316908115613aef5760405160408101908082106001600160401b03831117611a5257604091909152828152602001526001600160a01b031660a09190911b6001600160a01b03191617600055565b635b6cc80560e11b600052600060045260246000fd5b50636f483d0960e01b60005260045261271060245260446000fd5b613b2981613e14565b906001600160a01b03821615613b3d575090565b637e27328960e01b60005260045260246000fd5b6001600160a01b03811660009081527fb7db2dd08fcb62d0c9e08c51941cae53c267786a0b75803fb7960902fc8ef97d602052604090205460ff166131c8576001600160a01b031660008181527fb7db2dd08fcb62d0c9e08c51941cae53c267786a0b75803fb7960902fc8ef97d60205260408120805460ff191660011790553391907f2f8788117e7eff1d82e926ec794901d17c78024a50270940304540a733656f0d8180a4600190565b6001600160a01b03811660009081527fab71e3f32666744d246edff3f96e4bdafee2e9867098cdd118a979a7464786a8602052604090205460ff166131c8576001600160a01b031660008181527fab71e3f32666744d246edff3f96e4bdafee2e9867098cdd118a979a7464786a860205260408120805460ff191660011790553391907f189ab7a9244df0848122154315af71fe140f3db0fe014031783b0946b8c9d2e3907f2f8788117e7eff1d82e926ec794901d17c78024a50270940304540a733656f0d9080a4600190565b6000818152600080516020614999833981519152602090815260408083206001600160a01b038616845290915290205460ff16613d6d576000818152600080516020614999833981519152602090815260408083206001600160a01b0395909516808452949091528120805460ff19166001179055339291907f2f8788117e7eff1d82e926ec794901d17c78024a50270940304540a733656f0d9080a4600190565b5050600090565b6000818152600080516020614999833981519152602090815260408083206001600160a01b038616845290915290205460ff1615613d6d576000818152600080516020614999833981519152602090815260408083206001600160a01b0395909516808452949091528120805460ff19169055339291907ff6391f5c32d9c69d2a47ea670b442974b53935d1edc7fd64eb21e047a839171b9080a4600190565b60009081526000805160206149b983398151915260205260409020546001600160a01b031690565b60405161318191613e4e606083612d50565b604082527f4142434445464748494a4b4c4d4e4f505152535455565758595a61626364656660208301527f6768696a6b6c6d6e6f707172737475767778797a303132333435363738392b2f60408301526142ed565b90613ead82612d71565b613eba6040519182612d50565b8281528092613ecb601f1991612d71565b0190602036910137565b8060009172184f03e93ff9f4daa797ed6e38ed64bf6a1f0160401b821015613ffc575b806d04ee2d6d415b85acef8100000000600a921015613fe1575b662386f26fc10000811015613fcd575b6305f5e100811015613fbc575b612710811015613fad575b6064811015613f9f575b1015613f94575b600a6021613f5b60018501613ea3565b938401015b60001901916f181899199a1a9b1b9c1cb0b131b232b360811b8282061a8353048015613f8f57600a9091613f60565b505090565b600190910190613f4b565b606460029104930192613f44565b61271060049104930192613f3a565b6305f5e10060089104930192613f2f565b662386f26fc1000060109104930192613f22565b6d04ee2d6d415b85acef810000000060209104930192613f12565b506040915072184f03e93ff9f4daa797ed6e38ed64bf6a1f0160401b8104613ef8565b906001600160a01b0382168015611ed057600061403b83613e14565b6001600160a01b03811680158015969295929190859088614274575b61406084612fc3565b805460010190558486526000805160206149b98339815191526020526040862080546001600160a01b031916831790558482847fddf252ad1be2c89b69c2b068fc378daa952ba7f163c4a11628f55a4df523b3ef8980a4156141c2575060008051602061497983398151915254838552600080516020614939833981519152602052806040862055600160401b8110156141ae5790614117846137418460018a96016000805160206149798339815191525561302c565b0361413e575b505050505061412857565b6339e3563760e11b600052600060045260246000fd5b6141479061311c565b60001981019390841161419a57908291604093526000805160206148f9833981519152602052828220848352602052808383205581526000805160206148d983398151915260205220553880808061411d565b634e487b7160e01b83526011600452602483fd5b634e487b7160e01b85526041600452602485fd5b90808214614117576141d38761311c565b8486526000805160206148d98339815191526020526040862054908287526000805160206148f9833981519152602052604087209181810361423c575b508587526000805160206148d98339815191526020528660408120558652602052846040812055614117565b818852826020526040882054818952836020528060408a205588526000805160206148d9833981519152602052604088205538614210565b61427d85614293565b61428688612fc3565b8054600019019055614057565b6000526000805160206149d983398151915260205260406000206001600160601b0360a01b8154169055565b60ff6000805160206149f98339815191525460401c16156142dc57565b631afcd79f60e31b60005260046000fd5b9190918051156143d15780516002810180911161048e5760039004600281901b906001600160fe1b0381160361048e5761432690613ea3565b9060208201908081518201956020870190815192600083525b888110614383575050600393949596505251068060011461437057600214614365575090565b603d90600019015390565b50603d9081600019820153600119015390565b600360049199969901986001603f8b5182828260121c16870101518453828282600c1c16870101518385015382828260061c168701015160028501531684010151600382015301949761433f565b5090506040516143e2602082612d50565b6000815290565b906143f381613e14565b926001600160a01b03168015158061472b575b50506001600160a01b03831680159290831561470c575b6001600160a01b0382169384159081156146f7575b846000526000805160206149b98339815191526020526040600020866001600160601b0360a01b8254161790558486847fddf252ad1be2c89b69c2b068fc378daa952ba7f163c4a11628f55a4df523b3ef600080a41561463857600080516020614979833981519152548460005260008051602061493983398151915260205280604060002055600160401b811015611a5257846137418260016144e694016000805160206149798339815191525561302c565b156145ca575050905060008051602061497983398151915254600019810190811161048e57816000526000805160206149398339815191526020526145306040600020549161302c565b90549060031b1c614544816137418461302c565b600052600080516020614939833981519152602052604060002055600052600080516020614939833981519152602052600060408120556000805160206149798339815191525480156145b457600019016145a16138098261302c565b6000805160206149798339815191525590565b634e487b7160e01b600052603160045260246000fd5b83036145d7575b50505090565b6145e09061311c565b60001981019290831161048e576000526000805160206148f9833981519152602052604060002082600052602052806040600020556000526000805160206148d98339815191526020526040600020553880806145d1565b8185146144e6576146488661311c565b846000526000805160206148d983398151915260205260406000205490836000526000805160206148f98339815191526020526040600020918181036146b9575b50856000526000805160206148d983398151915260205260006040812055600052602052600060408120556144e6565b81600052826020526040600020548160005283602052806040600020556000526000805160206148d983398151915260205260406000205538614689565b61470084612fc3565b60018154019055614432565b61471583614293565b61471e85612fc3565b805460001901905561441d565b80614776575b1561473c5780614406565b6001600160a01b03841661475f5750637e27328960e01b60005260045260246000fd5b63177e802f60e01b60005260045260245260446000fd5b506001600160a01b038416811480156147bc575b80614731575060008281526000805160206149d983398151915260205260409020546001600160a01b03168114614731565b506147c684612f8a565b8160005260205260ff6040600020541661478a565b600c811115614856576012811115614835576018101561481557604051614803604082612d50565b60028152610c8d60f21b602082015290565b604051614823604082612d50565b6002815261064760f31b602082015290565b50604051614844604082612d50565b6002815261199b60f11b602082015290565b50604051614865604082612d50565b6002815261068760f31b602082015290565b9061489d575080511561488c57602081519101fd5b63d6bda27560e01b60005260046000fd5b815115806148cf575b6148ae575090565b639996b31560e01b60009081526001600160a01b0391909116600452602490fd5b50803b156148a656fe645e039705490088daad89bae25049a34f4a9072d398537b1ab2425f24cbed01645e039705490088daad89bae25049a34f4a9072d398537b1ab2425f24cbed0080bb2b638cc20bc4d0a60d66940f3ab4a00c1d7b313497ca82fb0b4ab0079300645e039705490088daad89bae25049a34f4a9072d398537b1ab2425f24cbed03360894a13ba1a3210667c828492db98dca3e2076cc3735a920a3ca505d382bbc645e039705490088daad89bae25049a34f4a9072d398537b1ab2425f24cbed0202dd7bc7dec4dceedda775e58dd541e08a116c6c53815c0bd028192f7b62680080bb2b638cc20bc4d0a60d66940f3ab4a00c1d7b313497ca82fb0b4ab007930280bb2b638cc20bc4d0a60d66940f3ab4a00c1d7b313497ca82fb0b4ab0079304f0c57e16840df040f15088dc2f81fe391c3923bec73e23a9662efc9c229c6a00f8e1a15aba9398e019f0b49df1a4fde98ee17ae345cb5f6b5e2c27f5033e8ce780bb2b638cc20bc4d0a60d66940f3ab4a00c1d7b313497ca82fb0b4ab0079301a2646970667358221220ab2760ea36e514edf5e06a89da9a2a0159956799b4f4b115a1c6a4ceea6d4c9164736f6c63430008210033",
  "linkReferences": {},
  "deployedLinkReferences": {}
}