{
  "_format": "hh-sol-artifact-1",
  "contractName": "SonicRegistrarV2",
  "sourceName": "contracts/v2/SonicRegistrarV2.sol",
  "abi": [
    {
      "inputs": [],
      "stateMutability": "nonpayable",
      "type": "constructor"
    },
    {
      "inputs": [
        {
          "internalType": "address",
          "name": "target",
          "type": "address"
        }
      ],
      "name": "AddressEmptyCode",
      "type": "error"
    },
    {
      "inputs": [
        {
          "internalType": "address",
          "name": "implementation",
          "type": "address"
        }
      ],
      "name": "ERC1967InvalidImplementation",
      "type": "error"
    },
    {
      "inputs": [],
      "name": "ERC1967NonPayable",
      "type": "error"
    },
    {
      "inputs": [],
      "name": "FailedCall",
      "type": "error"
    },
    {
      "inputs": [],
      "name": "InvalidInitialization",
      "type": "error"
    },
    {
      "inputs": [],
      "name": "NotInitializing",
      "type": "error"
    },
    {
      "inputs": [
        {
          "internalType": "address",
          "name": "owner",
          "type": "address"
        }
      ],
      "name": "OwnableInvalidOwner",
      "type": "error"
    },
    {
      "inputs": [
        {
          "internalType": "address",
          "name": "account",
          "type": "address"
        }
      ],
      "name": "OwnableUnauthorizedAccount",
      "type": "error"
    },
    {
      "inputs": [],
      "name": "ReentrancyGuardReentrantCall",
      "type": "error"
    },
    {
      "inputs": [],
      "name": "UUPSUnauthorizedCallContext",
      "type": "error"
    },
    {
      "inputs": [
        {
          "internalType": "bytes32",
          "name": "slot",
          "type": "bytes32"
        }
      ],
      "name": "UUPSUnsupportedProxiableUUID",
      "type": "error"
    },
    {
      "anonymous": false,
      "inputs": [
        {
          "indexed": true,
          "internalType": "address",
          "name": "owner",
          "type": "address"
        },
        {
          "indexed": false,
          "internalType": "uint256",
          "name": "count",
          "type": "uint256"
        },
        {
          "indexed": false,
          "internalType": "uint256",
          "name": "totalPrice",
          "type": "uint256"
        }
      ],
      "name": "BulkRegistration",
      "type": "event"
    },
    {
      "anonymous": false,
      "inputs": [
        {
          "indexed": true,
          "internalType": "address",
          "name": "owner",
          "type": "address"
        },
        {
          "indexed": false,
          "internalType": "uint256",
          "name": "count",
          "type": "uint256"
        },
        {
          "indexed": false,
          "internalType": "uint256",
          "name": "totalPrice",
          "type": "uint256"
        }
      ],
      "name": "BulkRenewal",
      "type": "event"
    },
    {
      "anonymous": false,
      "inputs": [
        {
          "indexed": true,
          "internalType": "string",
          "name": "name",
          "type": "string"
        },
        {
          "indexed": true,
          "internalType": "address",
          "name": "owner",
          "type": "address"
        },
        {
          "indexed": false,
          "internalType": "uint256",
          "name": "price",
          "type": "uint256"
        },
        {
          "indexed": false,
          "internalType": "uint256",
          "name": "yearCount",
          "type": "uint256"
        },
        {
          "indexed": false,
          "internalType": "uint256",
          "name": "tokenId",
          "type": "uint256"
        }
      ],
      "name": "DomainRegistered",
      "type": "event"
    },
    {
      "anonymous": false,
      "inputs": [
        {
          "indexed": true,
          "internalType": "string",
          "name": "name",
          "type": "string"
        },
        {
          "indexed": true,
          "internalType": "uint256",
          "name": "tokenId",
          "type": "uint256"
        },
        {
          "indexed": false,
          "internalType": "uint256",
          "name": "price",
          "type": "uint256"
        },
        {
          "indexed": false,
          "internalType": "uint256",
          "name": "yearCount",
          "type": "uint256"
        }
      ],
      "name": "DomainRenewed",
      "type": "event"
    },
    {
      "anonymous": false,
      "inputs": [
        {
          "indexed": false,
          "internalType": "uint64",
          "name": "version",
          "type": "uint64"
        }
      ],
      "name": "Initialized",
      "type": "event"
    },
    {
      "anonymous": false,
      "inputs": [
        {
          "indexed": true,
          "internalType": "address",
          "name": "previousOwner",
          "type": "address"
        },
        {
          "indexed": true,
          "internalType": "address",
          "name": "newOwner",
          "type": "address"
        }
      ],
      "name": "OwnershipTransferred",
      "type": "event"
    },
    {
      "anonymous": false,
      "inputs": [
        {
          "indexed": true,
          "internalType": "address",
          "name": "to",
          "type": "address"
        },
        {
          "indexed": false,
          "internalType": "uint256",
          "name": "amount",
          "type": "uint256"
        }
      ],
      "name": "PaymentWithdrawn",
      "type": "event"
    },
    {
      "anonymous": false,
      "inputs": [
        {
          "indexed": true,
          "internalType": "address",
          "name": "implementation",
          "type": "address"
        }
      ],
      "name": "Upgraded",
      "type": "event"
    },
    {
      "inputs": [],
      "name": "FIVECHAR",
      "outputs": [
        {
          "internalType": "uint256",
          "name": "",
          "type": "uint256"
        }
      ],
      "stateMutability": "view",
      "type": "function"
    },
    {
      "inputs": [],
      "name": "FOURCHAR",
      "outputs": [
        {
          "internalType": "uint256",
          "name": "",
          "type": "uint256"
        }
      ],
      "stateMutability": "view",
      "type": "function"
    },
    {
      "inputs": [],
      "name": "MAX_REGISTRATION_YEARS",
      "outputs": [
        {
          "internalType": "uint256",
          "name": "",
          "type": "uint256"
        }
      ],
      "stateMutability": "view",
      "type": "function"
    },
    {
      "inputs": [],
      "name": "SIXPLUSCHAR",
      "outputs": [
        {
          "internalType": "uint256",
          "name": "",
          "type": "uint256"
        }
      ],
      "stateMutability": "view",
      "type": "function"
    },
    {
      "inputs": [],
      "name": "THREECHAR",
      "outputs": [
        {
          "internalType": "uint256",
          "name": "",
          "type": "uint256"
        }
      ],
      "stateMutability": "view",
      "type": "function"
    },
    {
      "inputs": [],
      "name": "UPGRADE_INTERFACE_VERSION",
      "outputs": [
        {
          "internalType": "string",
          "name": "",
          "type": "string"
        }
      ],
      "stateMutability": "view",
      "type": "function"
    },
    {
      "inputs": [],
      "name": "YEAR",
      "outputs": [
        {
          "internalType": "uint256",
          "name": "",
          "type": "uint256"
        }
      ],
      "stateMutability": "view",
      "type": "function"
    },
    {
      "inputs": [
        {
          "internalType": "string[]",
          "name": "names",
          "type": "string[]"
        },
        {
          "internalType": "uint256[]",
          "name": "yearCounts",
          "type": "uint256[]"
        }
      ],
      "name": "calculateBulkPrice",
      "outputs": [
        {
          "internalType": "uint256",
          "name": "totalPrice",
          "type": "uint256"
        }
      ],
      "stateMutability": "view",
      "type": "function"
    },
    {
      "inputs": [
        {
          "internalType": "string",
          "name": "name",
          "type": "string"
        },
        {
          "internalType": "uint256",
          "name": "yearCount",
          "type": "uint256"
        }
      ],
      "name": "calculatePrice",
      "outputs": [
        {
          "internalType": "uint256",
          "name": "",
          "type": "uint256"
        }
      ],
      "stateMutability": "view",
      "type": "function"
    },
    {
      "inputs": [
        {
          "internalType": "uint256",
          "name": "",
          "type": "uint256"
        }
      ],
      "name": "discountTiers",
      "outputs": [
        {
          "internalType": "uint256",
          "name": "yearCount",
          "type": "uint256"
        },
        {
          "internalType": "uint256",
          "name": "discount",
          "type": "uint256"
        }
      ],
      "stateMutability": "view",
      "type": "function"
    },
    {
      "inputs": [
        {
          "internalType": "string",
          "name": "name",
          "type": "string"
        }
      ],
      "name": "getBasePrice",
      "outputs": [
        {
          "internalType": "uint256",
          "name": "",
          "type": "uint256"
        }
      ],
      "stateMutability": "pure",
      "type": "function"
    },
    {
      "inputs": [
        {
          "internalType": "uint256",
          "name": "yearCount",
          "type": "uint256"
        }
      ],
      "name": "getDiscount",
      "outputs": [
        {
          "internalType": "uint256",
          "name": "",
          "type": "uint256"
        }
      ],
      "stateMutability": "view",
      "type": "function"
    },
    {
      "inputs": [
        {
          "internalType": "string",
          "name": "name",
          "type": "string"
        },
        {
          "internalType": "uint256",
          "name": "yearCount",
          "type": "uint256"
        }
      ],
      "name": "getRenewalPrice",
      "outputs": [
        {
          "internalType": "uint256",
          "name": "",
          "type": "uint256"
        }
      ],
      "stateMutability": "view",
      "type": "function"
    },
    {
      "inputs": [
        {
          "internalType": "address",
          "name": "_registry",
          "type": "address"
        }
      ],
      "name": "initialize",
      "outputs": [],
      "stateMutability": "nonpayable",
      "type": "function"
    },
    {
      "inputs": [
        {
          "internalType": "string",
          "name": "name",
          "type": "string"
        }
      ],
      "name": "isValidName",
      "outputs": [
        {
          "internalType": "bool",
          "name": "",
          "type": "bool"
        }
      ],
      "stateMutability": "pure",
      "type": "function"
    },
    {
      "inputs": [],
      "name": "owner",
      "outputs": [
        {
          "internalType": "address",
          "name": "",
          "type": "address"
        }
      ],
      "stateMutability": "view",
      "type": "function"
    },
    {
      "inputs": [],
      "name": "proxiableUUID",
      "outputs": [
        {
          "internalType": "bytes32",
          "name": "",
          "type": "bytes32"
        }
      ],
      "stateMutability": "view",
      "type": "function"
    },
    {
      "inputs": [
        {
          "internalType": "string",
          "name": "name",
          "type": "string"
        },
        {
          "internalType": "uint256",
          "name": "yearCount",
          "type": "uint256"
        }
      ],
      "name": "register",
      "outputs": [],
      "stateMutability": "payable",
      "type": "function"
    },
    {
      "inputs": [
        {
          "internalType": "string[]",
          "name": "names",
          "type": "string[]"
        },
        {
          "internalType": "uint256[]",
          "name": "yearCounts",
          "type": "uint256[]"
        }
      ],
      "name": "registerBulk",
      "outputs": [],
      "stateMutability": "payable",
      "type": "function"
    },
    {
      "inputs": [],
      "name": "registry",
      "outputs": [
        {
          "internalType": "contract ISonicRegistryV2",
          "name": "",
          "type": "address"
        }
      ],
      "stateMutability": "view",
      "type": "function"
    },
    {
      "inputs": [
        {
          "internalType": "string",
          "name": "name",
          "type": "string"
        },
        {
          "internalType": "uint256",
          "name": "yearCount",
          "type": "uint256"
        }
      ],
      "name": "renew",
      "outputs": [],
      "stateMutability": "payable",
      "type": "function"
    },
    {
      "inputs": [
        {
          "internalType": "uint256[]",
          "name": "tokenIds",
          "type": "uint256[]"
        },
        {
          "internalType": "uint256[]",
          "name": "yearCounts",
          "type": "uint256[]"
        }
      ],
      "name": "renewBulk",
      "outputs": [],
      "stateMutability": "payable",
      "type": "function"
    },
    {
      "inputs": [],
      "name": "renounceOwnership",
      "outputs": [],
      "stateMutability": "nonpayable",
      "type": "function"
    },
    {
      "inputs": [
        {
          "internalType": "address",
          "name": "_registry",
          "type": "address"
        }
      ],
      "name": "setRegistry",
      "outputs": [],
      "stateMutability": "nonpayable",
      "type": "function"
    },
    {
      "inputs": [
        {
          "internalType": "address",
          "name": "newOwner",
          "type": "address"
        }
      ],
      "name": "transferOwnership",
      "outputs": [],
      "stateMutability": "nonpayable",
      "type": "function"
    },
    {
      "inputs": [
        {
          "internalType": "address",
          "name": "newImplementation",
          "type": "address"
        },
        {
          "internalType": "bytes",
          "name": "data",
          "type": "bytes"
        }
      ],
      "name": "upgradeToAndCall",
      "outputs": [],
      "stateMutability": "payable",
      "type": "function"
    },
    {
      "inputs": [],
      "name": "withdraw",
      "outputs": [],
      "stateMutability": "nonpayable",
      "type": "function"
    },
    {
      "stateMutability": "payable",
      "type": "receive"
    }
  ],
  "bytecode": "0x60a080604052346100ea57306080527ff0c57e16840df040f15088dc2f81fe391c3923bec73e23a9662efc9c229c6a005460ff8160401c166100d9576002600160401b03196001600160401b03821601610073575b604051611f0090816100f0823960805181818161104501526110ea0152f35b6001600160401b0319166001600160401b039081177ff0c57e16840df040f15088dc2f81fe391c3923bec73e23a9662efc9c229c6a005581527fc7f505b2f371ae2175ee4913f4499e1f2633a7b5936321eed1cdaeb6115181d290602090a13880610054565b63f92ee8a960e01b60005260046000fd5b600080fdfe6080604052600436101561001b575b361561001957600080fd5b005b60003560e01c806305f784c4146113f35780631e30397f146113b45780632336dbe4146113965780633b10faf5146113585780633ccfd60b146112885780634f1ef2861461109c57806352d1902d14611032578063603e93371461100f578063715018a614610fa55780637b10399914610f7c5780638391454014610f5d57806385e486c814610f4157806387b7fae214610c725780638da5cb5b14610c3c5780638f5d9e6e14610c1957806396431e8214610b7057806398d816ac14610b4d578063a91ee0dc14610b0a578063aa415eef14610ae7578063acf1a8411461095b578063ad3cb1cc146108fd578063c4d66de8146106df578063dae037ee146103ec578063ea87152b146101f6578063f2fde38b146101cd578063f3c341851461018b5763fa84dc2f0361000e5734610186576020366003190112610186576004356000548110156101865761017260409161162b565b506001815491015482519182526020820152f35b600080fd5b34610186576020366003190112610186576004356001600160401b038111610186576101c56101c06020923690600401611581565b611cbb565b604051908152f35b34610186576020366003190112610186576100196101e961159f565b6101f1611d29565b611c45565b6101ff366115b5565b90610208611d5f565b61022361021e61021936848761154a565b61172e565b611b8b565b60015460405163aeb8ce9b60e01b81526020600482018190526001600160a01b0390921694918180610259602482018787611b11565b0381885afa801561039057610276916000916103bd575b50611bde565b8215918215806103b2575b61028a906118df565b61029e8461029936848661154a565b611933565b946102aa863414611ad1565b6301e133808502938585046301e1338014171561039c576102e960209160009560405196878094819363d393c87160e01b835233898b60048601611c17565b03925af19182156103905760009261034e575b600080516020611eab83398151915293508160405192839283376000908201908152039020604080519586526020860194909452928401523392606090a36001600080516020611e6b83398151915255005b91506020833d602011610388575b816103696020938361150e565b8101031261018657600080516020611eab8339815191529251916102fc565b3d915061035c565b6040513d6000823e3d90fd5b634e487b7160e01b600052601160045260246000fd5b506005841115610281565b6103df915060203d6020116103e5575b6103d7818361150e565b810190611bc6565b86610270565b503d6103cd565b6103f53661148d565b909192610400611d5f565b61040b82851461167b565b6104168415156119ba565b61042360148511156119f5565b6001546000939084906001600160a01b03165b8682106105e957505061044a843414611ad1565b60005b85811061049b57858560405191825260208201527f8c9589a0881a9774f33437859c85a770c135e3c7e84f9ce6ac4b4b75dbcf8fb460403392a26001600080516020611e6b83398151915255005b6001546001600160a01b0316906104b38188866116bf565b90926104c0838887611700565b35906301e133808202918083046301e13380149015171561039c576105039460006020946040519788958694859363d393c87160e01b8552339160048601611c17565b03925af1918215610390578488916000946105a0575b50600080516020611eab833981519152600194610560856102998b61055761054e84610546818c8c6116bf565b9b909a6116bf565b9490928d611700565b3592369161154a565b9361056c868b8a611700565b359360008260405193849384378201908152039020604080519586526020860194909452928401523392606090a30161044d565b92939150506020823d82116105e1575b816105bd6020938361150e565b810103126105de575051908684600080516020611eab833981519152610519565b80fd5b3d91506105b0565b909461063a9061060a61021e6102196106038a8c8a6116bf565b369161154a565b6020610617888a886116bf565b60405163aeb8ce9b60e01b81526004810184905294859283926024840191611b11565b0381865afa9081156103905761065d61069e926001946000916106c15750611bde565b610668888887611700565b351515806106a6575b61067a906118df565b61069861029961068b8a8c8a6116bf565b91906105578c8c8b611700565b90611710565b950190610436565b5061067a60056106b78a8a89611700565b3511159050610671565b6106d9915060203d81116103e5576103d7818361150e565b8b610270565b34610186576020366003190112610186576106f861159f565b600080516020611e8b833981519152549060ff8260401c1615916001600160401b038116801590816108f5575b60011490816108eb575b1590816108e2575b506108d15767ffffffffffffffff198116600117600080516020611e8b83398151915255826108a4575b5061076a611d9b565b610772611d9b565b61077b33611c45565b610783611d9b565b61078b611d9b565b6001600080516020611e6b833981519152556107a5611d9b565b60018060a01b03166bffffffffffffffffffffffff60a01b60015416176001556107e56040516107d4816114dd565b600281526101f46020820152611b32565b6108056040516107f4816114dd565b600381526103e86020820152611b32565b610825604051610814816114dd565b600481526105dc6020820152611b32565b610845604051610834816114dd565b600581526107d06020820152611b32565b61084b57005b68ff000000000000000019600080516020611e8b8339815191525416600080516020611e8b833981519152557fc7f505b2f371ae2175ee4913f4499e1f2633a7b5936321eed1cdaeb6115181d2602060405160018152a1005b68ffffffffffffffffff19166801000000000000000117600080516020611e8b8339815191525582610761565b63f92ee8a960e01b60005260046000fd5b90501584610737565b303b15915061072f565b849150610725565b346101865760003660031901126101865761094d6040805161091f828261150e565b6005815260208101640352e302e360dc1b815282519384926020845251809281602086015285850190611608565b601f01601f19168101030190f35b610964366115b5565b909161096e611d5f565b60018060a01b03600154169060405193633740049560e21b855260206004860152602085806109a1602482018587611b11565b0381865afa94851561039057600095610ab3575b506109c1851515611a92565b831590811580610aa8575b6109d5906118df565b6109e48561029936848761154a565b916109f0833414611ad1565b6301e133808602908682046301e1338014171561039c57843b156101865760009460448692604051978893849263c89258db60e01b84528c600485015260248401525af1928315610390577fde064de66ae71b963b6799e2a2fce64f7551fbaf4545d498f8756e7090e2e46394604094610a97575b5081845192839283378101600081520390209382519182526020820152a36001600080516020611e6b83398151915255005b6000610aa29161150e565b87610a65565b5060058511156109cc565b90946020823d602011610adf575b81610ace6020938361150e565b810103126105de57505193856109b5565b3d9150610ac1565b34610186576000366003190112610186576020604051678ac7230489e800008152f35b3461018657602036600319011261018657610b2361159f565b610b2b611d29565b600180546001600160a01b0319166001600160a01b0392909216919091179055005b34610186576000366003190112610186576020604051674563918244f400008152f35b3461018657610b7e366115b5565b600154604051633740049560e21b8152602060048201819052929392909182906001600160a01b03168180610bb760248201888b611b11565b03915afa90811561039057600091610be0575b60206101c5856102998887610603881515611a92565b90506020929192813d602011610c11575b81610bfe6020938361150e565b8101031261018657519091906020610bca565b3d9150610bf1565b3461018657600036600319011261018657602060405167d02ab486cedc00008152f35b3461018657600036600319011261018657600080516020611e2b833981519152546040516001600160a01b039091168152602090f35b610c7b3661148d565b610c8793919293611d5f565b610c9281851461167b565b610c9d8415156119ba565b610caa60148511156119f5565b6001546000939084906001600160a01b03165b868210610e85575050610cd1843414611ad1565b60005b858110610d2257858560405191825260208201527f549796789b5a5fdfa7acdf1943ce93ef5ab4f43b61fcde8a4e531594d4bd029160403392a26001600080516020611e6b83398151915255005b6001546001600160a01b031690610d3a818887611700565b60405163da2bfdb160e01b815290356004820152600081602481865afa90811561039057600091610e64575b50610d7c610d75838787611700565b3582611933565b90610d88838a89611700565b35610d94848888611700565b356301e133808102908082046301e13380149015171561039c57853b1561018657604460009283604051988994859363c89258db60e01b8552600485015260248401525af193841561039057600194610e53575b507fde064de66ae71b963b6799e2a2fce64f7551fbaf4545d498f8756e7090e2e4636040610e17858c8b611700565b3593610e3c610e27878b8b611700565b35946020845192828480945193849201611608565b81010390209382519182526020820152a301610cd4565b6000610e5e9161150e565b89610de8565b610e7f913d8091833e610e77818361150e565b810190611a34565b88610d66565b9094610e92868887611700565b60405163da2bfdb160e01b81529035600482015290600082602481865afa90811561039057610698610f0592600194600091610f28575b50610ed681511515611a92565b610ee18a8989611700565b35151580610f0d575b610ef3906118df565b610efe8a8989611700565b3590611933565b950190610cbd565b50610ef36005610f1e8c8b8b611700565b3511159050610eea565b610f3b913d8091833e610e77818361150e565b8b610ec9565b3461018657600036600319011261018657602060405160058152f35b346101865760003660031901126101865760206040516301e133808152f35b34610186576000366003190112610186576001546040516001600160a01b039091168152602090f35b3461018657600036600319011261018657610fbe611d29565b600080516020611e2b83398151915280546001600160a01b031981169091556000906001600160a01b03167f8be0079c531659141344cd1fd0a4f28419497f9722a3daafe3b4186f6b6457e08280a3005b346101865760003660031901126101865760206040516768155a43676e00008152f35b34610186576000366003190112610186577f00000000000000000000000000000000000000000000000000000000000000006001600160a01b0316300361108b576020604051600080516020611e4b8339815191528152f35b63703e46dd60e11b60005260046000fd5b6040366003190112610186576110b061159f565b6024356001600160401b0381116101865736602382011215610186576110e090369060248160040135910161154a565b6001600160a01b037f000000000000000000000000000000000000000000000000000000000000000016308114908115611265575b5061108b57611122611d29565b6040516352d1902d60e01b81526001600160a01b0383169290602081600481875afa60009181611231575b506111675783634c9c8ce360e01b60005260045260246000fd5b80600080516020611e4b83398151915285920361121d5750813b1561120957600080516020611e4b83398151915280546001600160a01b031916821790557fbc7cd75a20ee27fd9adebab32041f755214dbc6bffa90cc0225b39da2e5c2d3b600080a28151156111ef5760008083602061001995519101845af46111e961198a565b91611dc9565b5050346111f857005b63b398979f60e01b60005260046000fd5b634c9c8ce360e01b60005260045260246000fd5b632a87526960e21b60005260045260246000fd5b9091506020813d60201161125d575b8161124d6020938361150e565b810103126101865751908561114d565b3d9150611240565b600080516020611e4b833981519152546001600160a01b03161415905083611115565b34610186576000366003190112610186576112a1611d29565b47801561132657600080808084335af16112b961198a565b50156112ed576040519081527f84511ecc081974f18e7f3e0dcc19db078b55bbd3852ddd0dd85b3aebb7bf94c260203392a2005b60405162461bcd60e51b815260206004820152601160248201527015da5d1a191c985dd85b0819985a5b1959607a1b6044820152606490fd5b60405162461bcd60e51b815260206004820152600a6024820152694e6f2062616c616e636560b01b6044820152606490fd5b34610186576040366003190112610186576004356001600160401b038111610186576101c561138d6020923690600401611581565b60243590611933565b346101865760203660031901126101865760206101c560043561188e565b34610186576020366003190112610186576004356001600160401b038111610186576113e96102196020923690600401611581565b6040519015158152f35b34610186576114013661148d565b9192600092909161141382861461167b565b6000945b80861061142957602085604051908152f35b909192936114516001916106986102996114448a878b6116bf565b91906105578c8b8b611700565b95019493929190611417565b9181601f84011215610186578235916001600160401b038311610186576020808501948460051b01011161018657565b6040600319820112610186576004356001600160401b03811161018657816114b79160040161145d565b92909291602435906001600160401b038211610186576114d99160040161145d565b9091565b604081019081106001600160401b038211176114f857604052565b634e487b7160e01b600052604160045260246000fd5b90601f801991011681019081106001600160401b038211176114f857604052565b6001600160401b0381116114f857601f01601f191660200190565b9291926115568261152f565b91611564604051938461150e565b829481845281830111610186578281602093846000960137010152565b9080601f830112156101865781602061159c9335910161154a565b90565b600435906001600160a01b038216820361018657565b906040600319830112610186576004356001600160401b0381116101865782602382011215610186578060040135926001600160401b038411610186576024848301011161018657602401919060243590565b60005b83811061161b5750506000910152565b818101518382015260200161160b565b60005481101561166557600080805260019190911b7f290decd9548b62a8d60345a988386fc84ba6bc95484008f6362f93160ef3e5630191565b634e487b7160e01b600052603260045260246000fd5b1561168257565b60405162461bcd60e51b8152602060048201526015602482015274082e4e4c2f240d8cadccee8d040dad2e6dac2e8c6d605b1b6044820152606490fd5b91908110156116655760051b81013590601e19813603018212156101865701908135916001600160401b038311610186576020018236038113610186579190565b91908110156116655760051b0190565b9190820180921161039c57565b908151811015611665570160200190565b805190600382108015611884575b61187d57811561166557602081015161175e906001600160f81b031916611d05565b1561187d5760005b8281106117a55750600019820191821161039c57602d60f81b916001600160f81b031991611794919061171d565b5116146117a057600190565b600090565b6001600160f81b03196117b8828461171d565b51166117c381611d05565b908115611859575b811561184b575b50156117f3578015158061182a575b806117fb575b6117f357600101611766565b505050600090565b50600019810181811161039c57602d60f81b906001600160f81b031990611822908561171d565b5116146117e7565b50602d60f81b6001600160f81b0319611843838561171d565b5116146117e1565b602d60f81b149050386117d2565b9050600360fc1b8110158061186f575b906117cb565b50603960f81b811115611869565b5050600090565b506040821161173c565b600181146118d9576000908154915b8281106118ac57505050600090565b816118b68261162b565b5054146118c55760010161189d565b600192506118d3915061162b565b50015490565b50600090565b156118e657565b60405162461bcd60e51b8152602060048201526012602482015271125b9d985b1a59081e59585c8818dbdd5b9d60721b6044820152606490fd5b8181029291811591840414171561039c57565b6119558261195061195b938215158061197f575b6101c0906118df565b611920565b9161188e565b801561197b5761196e6127109183611920565b04810390811161039c5790565b5090565b506005831115611947565b3d156119b5573d9061199b8261152f565b916119a9604051938461150e565b82523d6000602084013e565b606090565b156119c157565b60405162461bcd60e51b815260206004820152600c60248201526b456d7074792061727261797360a01b6044820152606490fd5b156119fc57565b60405162461bcd60e51b815260206004820152601060248201526f546f6f206d616e7920646f6d61696e7360801b6044820152606490fd5b602081830312610186578051906001600160401b038211610186570181601f82011215610186578051611a668161152f565b92611a74604051948561150e565b818452602082840101116101865761159c9160208085019101611608565b15611a9957565b60405162461bcd60e51b815260206004820152601060248201526f111bdb585a5b881b9bdd08199bdd5b9960821b6044820152606490fd5b15611ad857565b60405162461bcd60e51b8152602060048201526011602482015270125b98dbdc9c9958dd081c185e5b595b9d607a1b6044820152606490fd5b908060209392818452848401376000828201840152601f01601f1916010190565b600054680100000000000000008110156114f8576001810160005560008054821015611b77578080526020902060019190911b01906020816001925184550151910155565b634e487b7160e01b81526032600452602490fd5b15611b9257565b60405162461bcd60e51b815260206004820152600c60248201526b496e76616c6964206e616d6560a01b6044820152606490fd5b90816020910312610186575180151581036101865790565b15611be557565b60405162461bcd60e51b815260206004820152600a6024820152692730b6b2903a30b5b2b760b11b6044820152606490fd5b90611c319060409396959496606084526060840191611b11565b6001600160a01b0390951660208201520152565b6001600160a01b03168015611ca557600080516020611e2b83398151915280546001600160a01b0319811683179091556001600160a01b03167f8be0079c531659141344cd1fd0a4f28419497f9722a3daafe3b4186f6b6457e0600080a3565b631e4fbdf760e01b600052600060045260246000fd5b5160038114611cf85760048114611ceb57600514611cdf57674563918244f4000090565b6768155a43676e000090565b50678ac7230489e8000090565b5067d02ab486cedc000090565b60ff60f81b16606160f81b8110159081611d1d575090565b603d60f91b1015919050565b600080516020611e2b833981519152546001600160a01b03163303611d4a57565b63118cdaa760e01b6000523360045260246000fd5b6002600080516020611e6b8339815191525414611d8a576002600080516020611e6b83398151915255565b633ee5aeb560e01b60005260046000fd5b60ff600080516020611e8b8339815191525460401c1615611db857565b631afcd79f60e31b60005260046000fd5b90611def5750805115611dde57602081519101fd5b63d6bda27560e01b60005260046000fd5b81511580611e21575b611e00575090565b639996b31560e01b60009081526001600160a01b0391909116600452602490fd5b50803b15611df856fe9016d09d72d40fdae2fd8ceac6b6234c7706214fd39c1cd1e609a0528c199300360894a13ba1a3210667c828492db98dca3e2076cc3735a920a3ca505d382bbc9b779b17422d0df92223018b32b4d1fa46e071723d6817e2486d003becc55f00f0c57e16840df040f15088dc2f81fe391c3923bec73e23a9662efc9c229c6a00103ef2b580bb52b75be4bad57526f7e61f418fce0695737e314decb597bf74aca26469706673582212208cc17d948d4961acf151acf89d4a6f83df1329795f4ed7038cce55cbf0d2bf8764736f6c63430008210033",
  "linkReferences": {},
  "deployedLinkReferences": {}
}