{
  "_format": "hh-sol-artifact-1",
  "contractName": "SonicResolverV2",
  "sourceName": "contracts/v2/SonicResolverV2.sol",
  "abi": [
    {
      "inputs": [],
      "stateMutability": "nonpayable",
      "type": "constructor"
    },
    {
      "inputs": [
        {
          "internalType": "address",
          "name": "target",
          "type": "address"
        }
      ],
      "name": "AddressEmptyCode",
      "type": "error"
    },
    {
      "inputs": [
        {
          "internalType": "address",
          "name": "implementation",
          "type": "address"
        }
      ],
      "name": "ERC1967InvalidImplementation",
      "type": "error"
    },
    {
      "inputs": [],
      "name": "ERC1967NonPayable",
      "type": "error"
    },
    {
      "inputs": [],
      "name": "FailedCall",
      "type": "error"
    },
    {
      "inputs": [],
      "name": "InvalidInitialization",
      "type": "error"
    },
    {
      "inputs": [],
      "name": "NotInitializing",
      "type": "error"
    },
    {
      "inputs": [
        {
          "internalType": "address",
          "name": "owner",
          "type": "address"
        }
      ],
      "name": "OwnableInvalidOwner",
      "type": "error"
    },
    {
      "inputs": [
        {
          "internalType": "address",
          "name": "account",
          "type": "address"
        }
      ],
      "name": "OwnableUnauthorizedAccount",
      "type": "error"
    },
    {
      "inputs": [],
      "name": "UUPSUnauthorizedCallContext",
      "type": "error"
    },
    {
      "inputs": [
        {
          "internalType": "bytes32",
          "name": "slot",
          "type": "bytes32"
        }
      ],
      "name": "UUPSUnsupportedProxiableUUID",
      "type": "error"
    },
    {
      "anonymous": false,
      "inputs": [
        {
          "indexed": true,
          "internalType": "uint256",
          "name": "tokenId",
          "type": "uint256"
        },
        {
          "indexed": false,
          "internalType": "address",
          "name": "newAddress",
          "type": "address"
        }
      ],
      "name": "AddressChanged",
      "type": "event"
    },
    {
      "anonymous": false,
      "inputs": [
        {
          "indexed": true,
          "internalType": "uint256",
          "name": "tokenId",
          "type": "uint256"
        },
        {
          "indexed": false,
          "internalType": "bytes",
          "name": "hash",
          "type": "bytes"
        }
      ],
      "name": "ContenthashChanged",
      "type": "event"
    },
    {
      "anonymous": false,
      "inputs": [
        {
          "indexed": false,
          "internalType": "uint64",
          "name": "version",
          "type": "uint64"
        }
      ],
      "name": "Initialized",
      "type": "event"
    },
    {
      "anonymous": false,
      "inputs": [
        {
          "indexed": true,
          "internalType": "address",
          "name": "previousOwner",
          "type": "address"
        },
        {
          "indexed": true,
          "internalType": "address",
          "name": "newOwner",
          "type": "address"
        }
      ],
      "name": "OwnershipTransferred",
      "type": "event"
    },
    {
      "anonymous": false,
      "inputs": [
        {
          "indexed": true,
          "internalType": "address",
          "name": "addr",
          "type": "address"
        },
        {
          "indexed": true,
          "internalType": "uint256",
          "name": "tokenId",
          "type": "uint256"
        }
      ],
      "name": "PrimaryNameSet",
      "type": "event"
    },
    {
      "anonymous": false,
      "inputs": [
        {
          "indexed": true,
          "internalType": "uint256",
          "name": "tokenId",
          "type": "uint256"
        },
        {
          "indexed": true,
          "internalType": "string",
          "name": "key",
          "type": "string"
        },
        {
          "indexed": false,
          "internalType": "string",
          "name": "value",
          "type": "string"
        }
      ],
      "name": "TextChanged",
      "type": "event"
    },
    {
      "anonymous": false,
      "inputs": [
        {
          "indexed": true,
          "internalType": "address",
          "name": "implementation",
          "type": "address"
        }
      ],
      "name": "Upgraded",
      "type": "event"
    },
    {
      "inputs": [],
      "name": "UPGRADE_INTERFACE_VERSION",
      "outputs": [
        {
          "internalType": "string",
          "name": "",
          "type": "string"
        }
      ],
      "stateMutability": "view",
      "type": "function"
    },
    {
      "inputs": [
        {
          "internalType": "uint256",
          "name": "tokenId",
          "type": "uint256"
        }
      ],
      "name": "addr",
      "outputs": [
        {
          "internalType": "address",
          "name": "",
          "type": "address"
        }
      ],
      "stateMutability": "view",
      "type": "function"
    },
    {
      "inputs": [],
      "name": "clearPrimaryName",
      "outputs": [],
      "stateMutability": "nonpayable",
      "type": "function"
    },
    {
      "inputs": [
        {
          "internalType": "uint256",
          "name": "tokenId",
          "type": "uint256"
        }
      ],
      "name": "contenthash",
      "outputs": [
        {
          "internalType": "bytes",
          "name": "",
          "type": "bytes"
        }
      ],
      "stateMutability": "view",
      "type": "function"
    },
    {
      "inputs": [
        {
          "internalType": "address",
          "name": "owner",
          "type": "address"
        }
      ],
      "name": "getPrimaryName",
      "outputs": [
        {
          "internalType": "string",
          "name": "name",
          "type": "string"
        }
      ],
      "stateMutability": "view",
      "type": "function"
    },
    {
      "inputs": [
        {
          "internalType": "address",
          "name": "owner",
          "type": "address"
        }
      ],
      "name": "getPrimaryNameTokenId",
      "outputs": [
        {
          "internalType": "uint256",
          "name": "",
          "type": "uint256"
        }
      ],
      "stateMutability": "view",
      "type": "function"
    },
    {
      "inputs": [
        {
          "internalType": "uint256",
          "name": "tokenId",
          "type": "uint256"
        }
      ],
      "name": "getSocials",
      "outputs": [
        {
          "internalType": "string",
          "name": "twitter",
          "type": "string"
        },
        {
          "internalType": "string",
          "name": "github",
          "type": "string"
        },
        {
          "internalType": "string",
          "name": "discord",
          "type": "string"
        },
        {
          "internalType": "string",
          "name": "telegram",
          "type": "string"
        }
      ],
      "stateMutability": "view",
      "type": "function"
    },
    {
      "inputs": [
        {
          "internalType": "uint256",
          "name": "tokenId",
          "type": "uint256"
        },
        {
          "internalType": "string[]",
          "name": "keys",
          "type": "string[]"
        }
      ],
      "name": "getTexts",
      "outputs": [
        {
          "internalType": "string[]",
          "name": "values",
          "type": "string[]"
        }
      ],
      "stateMutability": "view",
      "type": "function"
    },
    {
      "inputs": [
        {
          "internalType": "address",
          "name": "_registry",
          "type": "address"
        }
      ],
      "name": "initialize",
      "outputs": [],
      "stateMutability": "nonpayable",
      "type": "function"
    },
    {
      "inputs": [],
      "name": "owner",
      "outputs": [
        {
          "internalType": "address",
          "name": "",
          "type": "address"
        }
      ],
      "stateMutability": "view",
      "type": "function"
    },
    {
      "inputs": [],
      "name": "proxiableUUID",
      "outputs": [
        {
          "internalType": "bytes32",
          "name": "",
          "type": "bytes32"
        }
      ],
      "stateMutability": "view",
      "type": "function"
    },
    {
      "inputs": [],
      "name": "registry",
      "outputs": [
        {
          "internalType": "contract ISonicRegistryV2",
          "name": "",
          "type": "address"
        }
      ],
      "stateMutability": "view",
      "type": "function"
    },
    {
      "inputs": [],
      "name": "renounceOwnership",
      "outputs": [],
      "stateMutability": "nonpayable",
      "type": "function"
    },
    {
      "inputs": [
        {
          "internalType": "uint256",
          "name": "tokenId",
          "type": "uint256"
        }
      ],
      "name": "resolveAddress",
      "outputs": [
        {
          "internalType": "address",
          "name": "",
          "type": "address"
        }
      ],
      "stateMutability": "view",
      "type": "function"
    },
    {
      "inputs": [
        {
          "internalType": "uint256",
          "name": "tokenId",
          "type": "uint256"
        }
      ],
      "name": "resolveContent",
      "outputs": [
        {
          "internalType": "string",
          "name": "",
          "type": "string"
        }
      ],
      "stateMutability": "view",
      "type": "function"
    },
    {
      "inputs": [
        {
          "internalType": "uint256",
          "name": "tokenId",
          "type": "uint256"
        },
        {
          "internalType": "string",
          "name": "key",
          "type": "string"
        }
      ],
      "name": "resolveText",
      "outputs": [
        {
          "internalType": "string",
          "name": "",
          "type": "string"
        }
      ],
      "stateMutability": "view",
      "type": "function"
    },
    {
      "inputs": [
        {
          "internalType": "address",
          "name": "",
          "type": "address"
        }
      ],
      "name": "reverseRecords",
      "outputs": [
        {
          "internalType": "uint256",
          "name": "",
          "type": "uint256"
        }
      ],
      "stateMutability": "view",
      "type": "function"
    },
    {
      "inputs": [
        {
          "internalType": "uint256",
          "name": "tokenId",
          "type": "uint256"
        },
        {
          "internalType": "address",
          "name": "newAddress",
          "type": "address"
        }
      ],
      "name": "setAddress",
      "outputs": [],
      "stateMutability": "nonpayable",
      "type": "function"
    },
    {
      "inputs": [
        {
          "internalType": "uint256",
          "name": "tokenId",
          "type": "uint256"
        },
        {
          "internalType": "bytes",
          "name": "hash",
          "type": "bytes"
        }
      ],
      "name": "setContenthash",
      "outputs": [],
      "stateMutability": "nonpayable",
      "type": "function"
    },
    {
      "inputs": [
        {
          "internalType": "uint256",
          "name": "tokenId",
          "type": "uint256"
        }
      ],
      "name": "setPrimaryName",
      "outputs": [],
      "stateMutability": "nonpayable",
      "type": "function"
    },
    {
      "inputs": [
        {
          "internalType": "address",
          "name": "_registry",
          "type": "address"
        }
      ],
      "name": "setRegistry",
      "outputs": [],
      "stateMutability": "nonpayable",
      "type": "function"
    },
    {
      "inputs": [
        {
          "internalType": "uint256",
          "name": "tokenId",
          "type": "uint256"
        },
        {
          "internalType": "string",
          "name": "key",
          "type": "string"
        },
        {
          "internalType": "string",
          "name": "value",
          "type": "string"
        }
      ],
      "name": "setText",
      "outputs": [],
      "stateMutability": "nonpayable",
      "type": "function"
    },
    {
      "inputs": [
        {
          "internalType": "uint256",
          "name": "tokenId",
          "type": "uint256"
        },
        {
          "internalType": "string[]",
          "name": "keys",
          "type": "string[]"
        },
        {
          "internalType": "string[]",
          "name": "values",
          "type": "string[]"
        }
      ],
      "name": "setTextBatch",
      "outputs": [],
      "stateMutability": "nonpayable",
      "type": "function"
    },
    {
      "inputs": [
        {
          "internalType": "uint256",
          "name": "tokenId",
          "type": "uint256"
        },
        {
          "internalType": "string",
          "name": "key",
          "type": "string"
        }
      ],
      "name": "text",
      "outputs": [
        {
          "internalType": "string",
          "name": "",
          "type": "string"
        }
      ],
      "stateMutability": "view",
      "type": "function"
    },
    {
      "inputs": [
        {
          "internalType": "address",
          "name": "newOwner",
          "type": "address"
        }
      ],
      "name": "transferOwnership",
      "outputs": [],
      "stateMutability": "nonpayable",
      "type": "function"
    },
    {
      "inputs": [
        {
          "internalType": "address",
          "name": "newImplementation",
          "type": "address"
        },
        {
          "internalType": "bytes",
          "name": "data",
          "type": "bytes"
        }
      ],
      "name": "upgradeToAndCall",
      "outputs": [],
      "stateMutability": "payable",
      "type": "function"
    }
  ],
  "bytecode": "0x60a080604052346100ea57306080527ff0c57e16840df040f15088dc2f81fe391c3923bec73e23a9662efc9c229c6a005460ff8160401c166100d9576002600160401b03196001600160401b03821601610073575b60405161207d90816100f08239608051818181610abe0152610b910152f35b6001600160401b0319166001600160401b039081177ff0c57e16840df040f15088dc2f81fe391c3923bec73e23a9662efc9c229c6a005581527fc7f505b2f371ae2175ee4913f4499e1f2633a7b5936321eed1cdaeb6115181d290602090a13880610054565b63f92ee8a960e01b60005260046000fd5b600080fdfe608080604052600436101561001357600080fd5b60003560e01c908163072c3b991461104c57508063149cff301461013d578063308e3386146109f45780633fb2478214610de45780634c16a74e14610dc05780634c7c26a314610d555780634f1ef28614610b1557806352d1902d14610aab578063543a666b14610a8c578063715018a614610a225780637b103999146109f957806382d324f0146109f457806388f97a67146107db5780638da5cb5b146107a5578063a4f6965714610668578063a91ee0dc14610625578063ac4ce2c6146104be578063ad3cb1cc14610477578063afc53671146103d4578063b7a750381461039a578063c4d66de81461021e578063cb323d76146101e7578063e67427f6146101bc578063f2fde38b14610191578063ff669b10146101425763ffa186491461013d57600080fd5b611314565b3461018c57600036600319011261018c57336000526001602052600060408120556000337f41f2b80eda6de6f23cab2e867951d054a48d6794db479c1d252bb840a374b62c8280a3005b600080fd5b3461018c57602036600319011261018c576101ba6101ad611406565b6101b5611f22565b611eac565b005b3461018c57602036600319011261018c5760206101df6101da611406565b611dc1565b604051908152f35b3461018c57602036600319011261018c5761021a610206600435611d3f565b6040519182916020835260208301906113c7565b0390f35b3461018c57602036600319011261018c57610237611406565b600080516020612028833981519152549060ff8260401c1615916001600160401b03811680159081610392575b6001149081610388575b15908161037f575b5061036e5767ffffffffffffffff1981166001176000805160206120288339815191525582610341575b506102a9611f58565b6102b1611f58565b6102ba33611eac565b6102c2611f58565b60018060a01b03166bffffffffffffffffffffffff60a01b60025416176002556102e857005b68ff0000000000000000196000805160206120288339815191525416600080516020612028833981519152557fc7f505b2f371ae2175ee4913f4499e1f2633a7b5936321eed1cdaeb6115181d2602060405160018152a1005b68ffffffffffffffffff1916680100000000000000011760008051602061202883398151915255826102a0565b63f92ee8a960e01b60005260046000fd5b90501584610276565b303b15915061026e565b849150610264565b3461018c57602036600319011261018c576001600160a01b036103bb611406565b1660005260016020526020604060002054604051908152f35b3461018c57604036600319011261018c576024356001600160401b03811161018c576104076104109136906004016112e4565b90600435611c3a565b6040518091602082016020835281518091526040830190602060408260051b8601019301916000905b82821061044857505050500390f35b919360019193955060206104678192603f198a820301865288516113c7565b9601920192018594939192610439565b3461018c57600036600319011261018c5761021a604080519061049a818361141c565b60058252640352e302e360dc1b6020830152519182916020835260208301906113c7565b3461018c57604036600319011261018c576004356024356001600160a01b0381169081900361018c576002546040516331a9108f60e11b81526004810184905291906001600160a01b0316602083602481845afa9081156105ec5761053b6020926024956000916105f8575b506001600160a01b03163314611477565b6040519384809263d9548e5360e01b82528760048301525afa9081156105ec576105926020927fa5d871c0e725767cd5aefc99c53aeca35f09dcc268145cbb13b74a7e2f48f196946000916105bf575b50156114ce565b83600052600082526040600020816bffffffffffffffffffffffff60a01b825416179055604051908152a2005b6105df9150843d86116105e5575b6105d7818361141c565b8101906114b6565b8661058b565b503d6105cd565b6040513d6000823e3d90fd5b6106189150843d861161061e575b610610818361141c565b810190611458565b8761052a565b503d610606565b3461018c57602036600319011261018c5761063e611406565b610646611f22565b600280546001600160a01b0319166001600160a01b0392909216919091179055005b3461018c57602036600319011261018c576002546040516331a9108f60e11b815260048035908201819052916001600160a01b031690602081602481855afa9081156105ec57600091610786575b50336001600160a01b03909116036107555760206024916040519283809263d9548e5360e01b82528660048301525afa80156105ec576106fe916000916107365750156114ce565b33600052600160205280604060002055337f41f2b80eda6de6f23cab2e867951d054a48d6794db479c1d252bb840a374b62c600080a3005b61074f915060203d6020116105e5576105d7818361141c565b8361058b565b60405162461bcd60e51b81526020600482015260096024820152682737ba1037bbb732b960b91b6044820152606490fd5b61079f915060203d60201161061e57610610818361141c565b836106b6565b3461018c57600036600319011261018c57600080516020611fe8833981519152546040516001600160a01b039091168152602090f35b3461018c576107e936611371565b6002546040516331a9108f60e11b81526004810185905291939291906001600160a01b0316602082602481845afa9081156105ec5761083f6020926024946000916109d757506001600160a01b03163314611477565b6040519283809263d9548e5360e01b82528760048301525afa80156105ec57610870916000916109b85750156114ce565b8160005260006020526001604060002001926001600160401b0381116109a2576108a48161089e865461157b565b866115b5565b600093601f8211600114610920576108f682807f6fd3fdff55b0feb6f24c338494b36929368cd564825688c741d54b8d7fa7beb99697600091610915575b508160011b916000199060031b1c19161790565b90555b610910604051928392602084526020840191611618565b0390a2005b9050850135886108e2565b80855260208520601f19831695805b87811061098a5750837f6fd3fdff55b0feb6f24c338494b36929368cd564825688c741d54b8d7fa7beb9969710610970575b5050600182811b0190556108f9565b840135600019600385901b60f8161c191690558580610961565b9091602060018192858901358155019301910161092f565b634e487b7160e01b600052604160045260246000fd5b6109d1915060203d6020116105e5576105d7818361141c565b8561058b565b6109ee9150843d861161061e57610610818361141c565b8861052a565b6113ec565b3461018c57600036600319011261018c576002546040516001600160a01b039091168152602090f35b3461018c57600036600319011261018c57610a3b611f22565b600080516020611fe883398151915280546001600160a01b031981169091556000906001600160a01b03167f8be0079c531659141344cd1fd0a4f28419497f9722a3daafe3b4186f6b6457e08280a3005b3461018c57602036600319011261018c5761021a610206600435611b69565b3461018c57600036600319011261018c577f00000000000000000000000000000000000000000000000000000000000000006001600160a01b03163003610b045760206040516000805160206120088339815191528152f35b63703e46dd60e11b60005260046000fd5b604036600319011261018c57610b29611406565b602435906001600160401b03821161018c573660238301121561018c57816004013590610b558261143d565b91610b63604051938461141c565b8083526020830193366024838301011161018c57816000926024602093018737840101526001600160a01b037f000000000000000000000000000000000000000000000000000000000000000016308114908115610d32575b50610b0457610bc9611f22565b6040516352d1902d60e01b81526001600160a01b0382169390602081600481885afa60009181610cfe575b50610c0e5784634c9c8ce360e01b60005260045260246000fd5b80600080516020612008833981519152869203610cea5750823b15610cd65760008051602061200883398151915280546001600160a01b031916821790557fbc7cd75a20ee27fd9adebab32041f755214dbc6bffa90cc0225b39da2e5c2d3b600080a2825115610cbb57600080916101ba945190845af43d15610cb3573d91610c968361143d565b92610ca4604051948561141c565b83523d6000602085013e611f86565b606091611f86565b50505034610cc557005b63b398979f60e01b60005260046000fd5b634c9c8ce360e01b60005260045260246000fd5b632a87526960e21b60005260045260246000fd5b9091506020813d602011610d2a575b81610d1a6020938361141c565b8101031261018c57519086610bf4565b3d9150610d0d565b600080516020612008833981519152546001600160a01b03161415905084610bbc565b3461018c57602036600319011261018c57610d96610da461021a610db2610d7d6004356119c4565b93929590916040519788976080895260808901906113c7565b9087820360208901526113c7565b9085820360408701526113c7565b9083820360608501526113c7565b3461018c57602036600319011261018c5761021a610206610ddf611406565b6117f0565b3461018c57606036600319011261018c576004356024356001600160401b03811161018c57610e17903690600401611344565b90916044356001600160401b03811161018c57610e38903690600401611344565b6002546040516331a9108f60e11b815260048101859052919491906001600160a01b0316602082602481845afa9081156105ec57610e8d60209260249460009161102f57506001600160a01b03163314611477565b6040519283809263d9548e5360e01b82528860048301525afa80156105ec57610ebe916000916110105750156114ce565b826000526000602052610ed960026040600020018287611562565b946001600160401b0385116109a257610efc85610ef6885461157b565b886115b5565b600095601f8611600114610f8b57610f4e86807f7121d1b42aabab02ef111a84b9dc36375a901fd0635378f23df84878362f96c7979899600091610f8057508160011b916000199060031b1c19161790565b90555b81604051928392833781016000815203902093610f7b604051928392602084526020840191611618565b0390a3005b90508601358a6108e2565b8087526020872096601f198716815b818110610ff8575090877f7121d1b42aabab02ef111a84b9dc36375a901fd0635378f23df84878362f96c79798999210610fde575b5050600187811b019055610f51565b85013560001960038a901b60f8161c191690558780610fcf565b868301358a5560019099019860209283019201610f9a565b611029915060203d6020116105e5576105d7818361141c565b8761058b565b6110469150843d861161061e57610610818361141c565b8a61052a565b3461018c57606036600319011261018c57600435906024356001600160401b03811161018c576110809036906004016112e4565b9190926044356001600160401b03811161018c576110a29036906004016112e4565b6002546331a9108f60e11b8552600485018490529093906001600160a01b0316602082602481845afa9081156105ec576110f360209260249460009161102f57506001600160a01b03163314611477565b6040519283809263d9548e5360e01b82528760048301525afa80156105ec57611124916000916110105750156114ce565b8284036112a75760005b84811061113757005b61114281858461150b565b8460005260006020526111676002604060002001611161858a8c61150b565b90611562565b916001600160401b0382116109a25761118a82611184855461157b565b856115b5565b600090601f831160011461123f5791806111c0926001969594600092611234575b50508160011b916000199060031b1c19161790565b90555b7f7121d1b42aabab02ef111a84b9dc36375a901fd0635378f23df84878362f96c7846111f083898b61150b565b92906111fd858a8961150b565b949091600082604051938493843782019081520390209361122b604051928392602084526020840191611618565b0390a30161112e565b013590508b806111ab565b8382526020822091601f198416815b81811061128f575091600196959492918388959310611275575b505050811b0190556111c3565b0135600019600384901b60f8161c191690558a8080611268565b8383013585556001909401936020928301920161124e565b60405162461bcd60e51b8152602060048201526015602482015274082e4e4c2f240d8cadccee8d040dad2e6dac2e8c6d605b1b6044820152606490fd5b9181601f8401121561018c578235916001600160401b03831161018c576020808501948460051b01011161018c57565b3461018c57602036600319011261018c576020611332600435611639565b6040516001600160a01b039091168152f35b9181601f8401121561018c578235916001600160401b03831161018c576020838186019501011161018c57565b90604060031983011261018c5760043591602435906001600160401b03821161018c576113a091600401611344565b9091565b60005b8381106113b75750506000910152565b81810151838201526020016113a7565b906020916113e0815180928185528580860191016113a4565b601f01601f1916010190565b3461018c5761021a61020661140036611371565b9161173d565b600435906001600160a01b038216820361018c57565b90601f801991011681019081106001600160401b038211176109a257604052565b6001600160401b0381116109a257601f01601f191660200190565b9081602091031261018c57516001600160a01b038116810361018c5790565b1561147e57565b60405162461bcd60e51b815260206004820152601060248201526f2737ba103237b6b0b4b71037bbb732b960811b6044820152606490fd5b9081602091031261018c5751801515810361018c5790565b156114d557565b60405162461bcd60e51b815260206004820152600e60248201526d111bdb585a5b88195e1c1a5c995960921b6044820152606490fd5b919081101561154c5760051b81013590601e198136030182121561018c5701908135916001600160401b03831161018c57602001823603811361018c579190565b634e487b7160e01b600052603260045260246000fd5b6020919283604051948593843782019081520301902090565b90600182811c921680156115ab575b602083101461159557565b634e487b7160e01b600052602260045260246000fd5b91607f169161158a565b919091601f83116115c6575b505050565b8183116115d257505050565b60005260206000206020601f830160051c921061160f575b81601f9101920160051c039060005b828110156115c1576000828201556001016115f9565b600091506115ea565b908060209392818452848401376000828201840152601f01601f1916010190565b60025460405163d9548e5360e01b81526004810183905290602090829060249082906001600160a01b03165afa9081156105ec5760009161169b575b50611695576000908152602081905260409020546001600160a01b031690565b50600090565b6116b4915060203d6020116105e5576105d7818361141c565b38611675565b600092918154916116ca8361157b565b808352926001811690811561172057506001146116e657505050565b60009081526020812093945091925b838310611706575060209250010190565b6001816020929493945483858701015201910191906116f5565b915050602093945060ff929192191683830152151560051b010190565b60025460405163d9548e5360e01b81526004810183905292939290602090829060249082906001600160a01b03165afa9081156105ec576000916117d1575b506117b9576117af926117b6926117a3926000526000602052600260406000200191611562565b604051928380926116ba565b038261141c565b90565b5050506040516117ca60208261141c565b6000815290565b6117ea915060203d6020116105e5576105d7818361141c565b3861177c565b6001600160a01b031660008181526001602052604090205480156119765760025460405163d9548e5360e01b8152600481018390526001600160a01b039091169290602081602481875afa9081156105ec576000916119a5575b506117b9576040516331a9108f60e11b815260048101839052602081602481875afa9081156105ec57600091611986575b506001600160a01b0316036119765760009060246040518094819363da2bfdb160e01b835260048301525afa9081156105ec576000916118f1575b506117b660026020604051846118d582965180928580860191016113a4565b8101612e7360f01b838201520301601d1981018452018261141c565b903d8082843e611901818461141c565b82019160208184031261196e578051906001600160401b038211611972570182601f8201121561196e578051916119378361143d565b93611945604051958661141c565b8385526020848401011161196b57509061196591602080850191016113a4565b386118b6565b80fd5b5080fd5b8280fd5b50506040516117ca60208261141c565b61199f915060203d60201161061e57610610818361141c565b3861187b565b6119be915060203d6020116105e5576105d7818361141c565b3861184a565b906024602060018060a01b03600254166040519283809263d9548e5360e01b82528760048301525afa9081156105ec57600091611b4a575b50611b03578160005260006020526117af611a41602b6002604060002001604051906a31b7b6973a3bb4ba3a32b960a91b8252600b82015220604051928380926116ba565b918060005260006020526117af611a81602a6002604060002001604051906931b7b69733b4ba343ab160b11b8252600a82015220604051928380926116ba565b918160005260006020526117af611ac2602b6002604060002001604051906a18dbdb4b991a5cd8dbdc9960aa1b8252600b82015220604051928380926116ba565b9160005260006020526117af6117b6602c6002604060002001604051906b6f72672e74656c656772616d60a01b8252600c82015220604051928380926116ba565b60405160209250611b14838261141c565b6000815291604051611b26828261141c565b6000815291604051611b38838261141c565b60008152916117ca604051918261141c565b611b63915060203d6020116105e5576105d7818361141c565b386119fc565b60025460405163d9548e5360e01b81526004810183905290602090829060249082906001600160a01b03165afa9081156105ec57600091611bf0575b50611be15760005260006020526117af6117b66023600260406000200160405190621d5c9b60ea1b8252600382015220604051928380926116ba565b506040516117ca60208261141c565b611c09915060203d6020116105e5576105d7818361141c565b38611ba5565b6001600160401b0381116109a25760051b60200190565b805182101561154c5760209160051b010190565b90929192611c4784611c0f565b93611c55604051958661141c565b808552601f19611c6482611c0f565b0160005b818110611d2e57505060025460405163d9548e5360e01b8152600481018590528691602090829060249082906001600160a01b03165afa9081156105ec57600091611d0f575b50611d08575060005b818110611cc45750505050565b6001908460005260006020526117af611cec6117a3600260406000200161116185888a61150b565b611cf68289611c26565b52611d018188611c26565b5001611cb7565b9450505050565b611d28915060203d6020116105e5576105d7818361141c565b38611cae565b806060602080938a01015201611c68565b60025460405163d9548e5360e01b81526004810183905290602090829060249082906001600160a01b03165afa9081156105ec57600091611da2575b50611be15760005260006020526117af6117b66001604060002001604051928380926116ba565b611dbb915060203d6020116105e5576105d7818361141c565b38611d7b565b6001600160a01b0316600081815260016020526040902054908115611ea55760025460405163d9548e5360e01b8152600481018490526001600160a01b0390911690602081602481855afa9081156105ec57600091611e86575b50611e7e576020602491604051928380926331a9108f60e11b82528760048301525afa9081156105ec57600091611e5f575b506001600160a01b0316036116955790565b611e78915060203d60201161061e57610610818361141c565b38611e4d565b505050600090565b611e9f915060203d6020116105e5576105d7818361141c565b38611e1b565b5050600090565b6001600160a01b03168015611f0c57600080516020611fe883398151915280546001600160a01b0319811683179091556001600160a01b03167f8be0079c531659141344cd1fd0a4f28419497f9722a3daafe3b4186f6b6457e0600080a3565b631e4fbdf760e01b600052600060045260246000fd5b600080516020611fe8833981519152546001600160a01b03163303611f4357565b63118cdaa760e01b6000523360045260246000fd5b60ff6000805160206120288339815191525460401c1615611f7557565b631afcd79f60e31b60005260046000fd5b90611fac5750805115611f9b57602081519101fd5b63d6bda27560e01b60005260046000fd5b81511580611fde575b611fbd575090565b639996b31560e01b60009081526001600160a01b0391909116600452602490fd5b50803b15611fb556fe9016d09d72d40fdae2fd8ceac6b6234c7706214fd39c1cd1e609a0528c199300360894a13ba1a3210667c828492db98dca3e2076cc3735a920a3ca505d382bbcf0c57e16840df040f15088dc2f81fe391c3923bec73e23a9662efc9c229c6a00a26469706673582212207ddf4ba8fd06b14bba4ec87a200f72c4c985e5a38978ca2fc5321a4329874d1664736f6c63430008210033",
  "linkReferences": {},
  "deployedLinkReferences": {}
}